:020000040800F2
:10000000A80A0020550200086D400008053A0008C3
:1000100031400008E50E0008ED4B0008000000002C
:10002000000000000000000000000000374500084C
:10003000F30F000800000000354500088D4500085A
:100040006F0200086F0200086F0200086F020008CC
:100050006F0200086F0200086F0200086F020008BC
:100060006F0200086F0200086F020008B50F000859
:100070006F0200086F0200086F020008C10F00083D
:100080006F0200086F0200086F0200086F0200088C
:100090006F0200086F0200086F0200086F0200087C
:1000A0006F0200086F0200086F0200086F0200086C
:1000B0006F0200086F020008000000006F020008D5
:1000C0006F02000800000000000000006F0200083E
:1000D00000000000E14B00086F0200086F020008FA
:1000E0006F0200086F02000800000000000000001E
:1000F0000000000000000000000000000000000000
:1001000000000000000000000000000000000000EF
:1001100000000000000000003946000845460008C5
:1001200000000000000000000000000000000000CF
:1001300000000000000000000000000000000000BF
:10014000E90E00086F020008000000006F020008BE
:10015000553600086F020008913700086F0200084A
:100160006F0200086F02000800000000000000009D
:10017000000000000000000000000000000000007F
:10018000000000006F02000800F002F800F052F8D2
:100190000AA090E8000C82448344AAF10107DA45E2
:1001A00001D100F047F8AFF2090EBAE80F0013F0E2
:1001B000010F18BFFB1A43F00103184794770000A2
:1001C000B4770000103A24BF78C878C1FAD8520733
:1001D00024BF30C830C144BF04680C6070470000C1
:1001E0000023002400250026103A28BF78C1FBD840
:1001F000520728BF30C148BF0B607047662907F01F
:100200000081642900F0B880752900F0B580632969
:1002100000F00B84002070471FB507F0E0F800F0F5
:1002200043FC04000020002106F030FBE0601FBD0D
:1002300010B510BD00F038FD1146FFF7EDFF04F0DA
:100240004BFD00F056FD03B4FFF7F2FF03BC00F0D6
:1002500099FD00000948804709480047FEE7FEE78E
:10026000FEE7FEE7FEE7FEE7FEE7FEE7FEE7FEE766
:1002700004480549054A064B704700002946000816
:1002800089010008A8040020A80A0020A806002070
:10029000A80600200FB41CB5074B06AA7B4469468C
:1002A0000090059800F09FFB0020694600F0AEFB2F
:1002B0001CBC5DF814FB00006D0700002DE9F04147
:1002C0000E460446002020622046E168884730B38D
:1002D000252805D0D4E901219047206A401CF2E787
:1002E000E168204600278847050018D0A5F14100A5
:1002F000192802D820354FF4006732462946204697
:100300002760FFF77BFF40B1012804D0F61D26F0DF
:1003100007060836D8E7361DD6E72846DAE7206A0A
:10032000BDE8F08170B50C460546012A05D0287855
:10033000800600D5EA69002302E0012305E05B1C8A
:10034000934202D2E05C0028F9D1A869E618C01AED
:10035000A861286A184428622846AFF3008004E0A8
:10036000D5E9012114F8010B9047B442F8D328468F
:10037000AFF3008070BD00002DE9F0410646002477
:1003800010687529314616A510D0AFF300800028FB
:1003900002DA404213A507E031688A0701D512A5A9
:1003A00002E0490704D511A5012401E0AFF3008064
:1003B00000210A2206F1240709E0B0FBF2FCB0FBA1
:1003C000F2F302FB1C00303078541846491C002818
:1003D000F3D123462A463046BDE8F04100F096B8F6
:1003E000000000002D0000002B0000002000000095
:1003F00010B5431C02E010F8011B71B18107FAD15E
:100400004FF0013202C88C1A8C4314EAC211F9D0A1
:10041000C01A0A0603D0C01E10BDC01A10BD0A04BF
:1004200001D0801E10BD0902FCD0401E10BD032A61
:1004300040F2308010F0030C00F0158011F8013B01
:10044000BCF1020F624498BF11F801CB00F8013BE8
:1004500038BF11F8013BA2F1040298BF00F801CBAC
:1004600038BF00F8013B11F0030300F0EA82083ABC
:10047000C0F0088051F8043B083A51F804CBA0E8DA
:100480000810F5E7121D5CBF51F8043B40F8043B2F
:10049000AFF30080D20724BF11F8013B11F801CB64
:1004A00048BF11F8012B24BF00F8013B00F801CB35
:1004B00048BF00F8012B70474FF0000200B513460B
:1004C00094469646203922BFA0E80C50A0E80C5074
:1004D000B1F12001BFF4F7AF090728BFA0E80C5025
:1004E00048BF0CC05DF804EB890028BF40F8042B1E
:1004F00008BF704748BF20F8022B11F0804F18BF8B
:1005000000F8012B70477047704770472DE9F0479E
:100510000D4699469246044600F124080168880673
:1005200004D5E06921F01001216000E00120A8421B
:1005300001DD471B00E00027A1697A1902EB0900E1
:10054000081AA0612078C00602D42046AFF30080CC
:10055000002608E0D4E901211AF806009047206A35
:10056000401C761C20624E45F4DB2078C0060AD57C
:100570002046AFF3008006E0D4E901213020904707
:10058000206A401C2062381EA7F10107F4DC07E056
:10059000D4E9012118F805009047206A401C206228
:1005A000281EA5F10105F3DC2046AFF3008020787A
:1005B000000602D50220BDE8F0870120FBE72DE907
:1005C000FF4F0C461E464FF0FF378BB0D2E90001BB
:1005D000DDF860800A908A46C1F30A5505B93D46A8
:1005E000002108464FF00000BAF1000F00F440006F
:1005F00005DA00EB80004FF4400101EA50004FEAB9
:100600009059B9F1010F00DDB9460A9850EA4A0045
:100610000ED044F61050A5F2FF3545432F14B8F123
:10062000000F1ED07542291E1EDDC9F100021CE01C
:10063000B8F1010F4FF0000001D0302103E0F24388
:1006400005E02154401CB042FBDB30460022002173
:1006500021540B99C1F80880C1E900200FB0BDE812
:10066000F08FBD1B6D1CDEE74A4600DA694206A822
:1006700000F0A4FA06AB93E8070003AB83E8070099
:1006800050460A9905F021FD8DE80700A0F50050BD
:100690001F3800900398002D0ADD42F21F014A46E0
:1006A0000844002303A90390684605F08BFF09E086
:1006B000A0F500504A461F38002303A9039068465E
:1006C00005F095FF8DE807000004000C03D04FF003
:1006D000FF30410800E01046B8F1000F03D00022BF
:1006E000009215461EE0751E05D400F0E1F9303287
:1006F00062556D1EF9D5B3460122084302D000228F
:100700007F1C04E02078302801D100227F1E002ABF
:10071000099784D01DE0112D07DA00F0C9F93032B5
:1007200062556D1C50EA0102F5D1084302D00098D1
:10073000C8B10EE00021681E05E0235C625C6354D2
:100740002254401E491C8142F7DBAB46A81B401EC9
:100750000990002004F80B000B98099AC0F8088053
:10076000C0E9002B7AE711264FF0000857E72DE982
:10077000F04F88460446D21D22F0070191B0D1E91E
:100780000001CDE90A0106F069F802460B98C00F96
:1007900001D02D2007E02068810701D52B2002E041
:1007A000202101EAC000032A099001D0072A05DBB5
:1007B00003464146204600F0C1F90BE1207880064F
:1007C00001D5E06900E00620B8F1650F814606D04A
:1007D000B8F1660F18D0B8F1670F70D131E0002082
:1007E000B9F1110F009001DB112301E009F10103C0
:1007F0000AAA01A90CA8FFF7E2FEDDE90C700026A9
:1008000009F10105834647E001204B4600904FF077
:1008100000470AAA01A90CA8FFF7D1FEDDE90DB037
:100820000C995D46002610B909F101000D18B9EBCD
:10083000050003D4C0F1FF3609F10105A5EB09005D
:100840002BE0B9F1010F01DA4FF001090020B9F1F5
:10085000110F0090484601DD112300E003460AAA6B
:1008600001A90CA8FFF7ABFEDDE90C704D46002690
:100870008346207800070AD4AB4500DA5D4601A81C
:10088000012D04DD411911F8011C302907D04F4515
:1008900002DA17F1040F04DA012082460FE06D1E20
:1008A000EEE7002F02DCED1B3E4403E0781CA8427B
:1008B00000DD7D1CB81B00F1010A4FF000472078D5
:1008C000000703D4AA4501DB4FF0FF3A0021B7F13E
:1008D000004F0DF143088DF8431024D002202B2344
:1008E000002F01DA7F422D230A21021EA0F1010010
:1008F00000DC5FB197FBF1FC97FBF1F201FB1C7C84
:1009000017460CF1300C08F801CDEEE7A8F1010014
:1009100003702188090501D5452100E06521A0F17A
:10092000010800F8011C09980FA9A1EB0807FF1D99
:1009300000B10120411901EBEA70A1693844081A9D
:10094000401EA0612078C00602D42046AFF300808C
:10095000099828B1D4E901219047206A401C2062FF
:100960002078C00622D52046AFF300801EE0002E7E
:1009700004DBB34502DD01A8805D00E03020D4E94E
:1009800001219047206A401C2062761CAAF10100D8
:100990005FEA000A0AD100F087F8C0680168405C8D
:1009A000D4E901219047206A401C2062281EA5F14D
:1009B0000105DCDC07E0D4E9012118F8010B9047C0
:1009C000206A401C2062381EA7F10107F3DC204694
:1009D000AFF30080032011B041E6000001694A1C1A
:1009E00002610878704700B58FB0CDE90131002170
:1009F000059105497944CDE9031011466846FFF792
:100A00005DFC0FB000BD0000E5FFFFFF0A6802F8C3
:100A1000010B0A60704710B5436913B1AFF3008052
:100A200001E0FFF77FFC012010BD127800F12401E6
:100A30000A7000224A700122EDE711684FF0FF3280
:100A4000E9E710B5203AC0F00B80B1E81850A0E8F3
:100A50001850B1E81850A0E81850203ABFF4F5AF8C
:100A60005FEA027C24BFB1E81850A0E8185044BFE8
:100A700018C918C0BDE810405FEA827C24BF51F855
:100A8000043B40F8043B08BF7047D20728BF31F849
:100A9000023B48BF11F8012B28BF20F8023B48BF9A
:100AA00000F8012B70470000004870473800002014
:100AB00030B5B0F10A0271F100034FEA900E4EEA30
:100AC000817EB0EB0E0061EB91014FEA101E4EEA01
:100AD000017E10EB0E0041EB11114FEA102E4EEA91
:100AE000016E10EB0E0041EB11214FEA104E4EEA61
:100AF000014E10EB0E0041EB1141401841F1000195
:100B00004FEAD00040EA41704FEAD1014FEA810438
:100B100044EA907410EB800544EB01046D1944EB3A
:100B20000404521BA3414FF0000348BF0A3200D512
:100B300030BD401C41F1000130BD00002DE9F04105
:100B40001F46044603260168072A01F4006004DBFF
:100B500008B116A505E016A503E008B115A500E04B
:100B600015A521F010002060A069C01EA0610FB182
:100B7000401EA0612046AFF300804FB1D4E90121AF
:100B800038469047206A401C2062C01C206206E064
:100B9000206AFAE7D4E9012115F8010B9047761E87
:100BA000F8D22046AFF30080BDE8F0814E414E0000
:100BB0006E616E00494E4600696E66002DE9F04791
:100BC000814616468AB0354878440DC88DE80D0038
:100BD00032487844801C03AC0DC884E80D0041F60F
:100BE0009B300844372190FBF1F290FBF1F5A5F121
:100BF000800501FB12041B3C02D56442012000E089
:100C00000020DFF898A080460027FA44AAF1BE0A27
:100C10000EE0E0070AD03246684607EB47010123A1
:100C20000AEB810105F0E3FC8DE8070064107F1CEE
:100C3000002CEED1194F7F44AE3F19E0E80715D0E4
:100C400007EB04100DF1180A90E80E008AE80E0078
:100C5000C068F04201D1981908903246012306A9D4
:100C600003A805F0C4FC03AB83E807006D10641C07
:100C7000002DE3D14FF0010332466946B8F1000F71
:100C800003A802D005F09EFC01E005F0B0FCC9E924
:100C90000001C9F808200AB0BDE8F087B868000074
:100CA00000487047180000207546FFF7F9FFAE4670
:100CB00005006946534620F00700854618B020B568
:100CC000FFF7D6FABDE820404FF000064FF00007CE
:100CD0004FF000084FF0000BAC46ACE8C009ACE8A0
:100CE000C009ACE8C009ACE8C00921F007018D4695
:100CF000704710B50446AFF300802046BDE81040B1
:100D0000FFF7A1BA0000000030B44FF0013C50F8EA
:100D1000042B51F8043BCCFA52F4D51A20D1FCB97B
:100D200050F8042B51F8043BCCFA52F4D51A17D1E1
:100D3000B4B950F8042B51F8043BCCFA52F4D51A4C
:100D40000ED16CB950F8042B51F8043BCCFA52F494
:100D5000D51A05D1002CDAD030BC4FF00000704716
:100D600029BAB1FA81F111F01801D1F120008440C3
:100D7000F2D1CA40CB4012F0FF0213F0FF0330BCA7
:100D8000D01A704701491820ABBEFEE726000200CA
:100D900070470146406A026C12F0500F03D0806B1E
:100DA000026B084610470168026C42F4007202644C
:100DB000C96811F4406F01D000F0B8BB417E002932
:100DC000FAD1016C21F480710164016CC904F3D47F
:100DD000016C41F00101016400F0A8BB406A016CA4
:100DE00041F040010164416C41F00401416400F0B4
:100DF000A7BB406A00F09FBBB0B503F09EFA02D1DA
:100E00000168C90701D10020B0BD816801F00D0162
:100E1000012915D1816841F002018160032101603F
:100E200001F054F8054620688068C007EBD001F057
:100E30004DF8401B0328F6D320688068C007F2D025
:100E400003F049BBB0B503F078FA02D10168C907D5
:100E50001AD181680D4A114201D003F03CBB816870
:100E600041F00101816001F031F805462068006819
:100E7000C00709D101F02AF8401B0328F6D32068E7
:100E80000068C007F2D1E8E70020B0BD3F00008055
:100E900070B5104C054603F042FB0026204601F0D9
:100EA0000EF8284603F05CFB9FED0B0A03F010FBE5
:100EB000284603F041FB03F0E9FA08484FF40041EB
:100EC00001224680204600F0FAFF0548BDE8704048
:100ED00002F092B80004004800002A43F800002005
:100EE0004C030020FEE7000080B5034800F0B8FC8A
:100EF00002480121017080BDE8010020F8000020B7
:100F000010B52DED028B044610EE100AB0EE408AAB
:100F100006F0CAF99FED1E0B53EC102B06F0FDF9FD
:100F20009FED1F0A002818BFB0EE408A18EE100A85
:100F300006F0BAF99FED180B53EC102B06F002FAED
:100F40009FED180A002818BFB0EE408A9FED161AD0
:100F50009FED162A164884ED008AB7EE000A80EE4F
:100F6000080A006820EE011A84ED010A81EE021AD7
:100F7000BCEEC11A84ED021A80ED651A11EE100A5A
:100F8000A0F27710E060BDEC028B10BD00BF00BF87
:100F9000D7A3703D0A7F6D40B81E85EB51086440B1
:100FA00052F86B438F422043286B6E4E000059432A
:100FB00070020020014800F0EDBD00BFA00000203D
:100FC000014800F0E7BD00BF2C020020F0B5D0E9D9
:100FD0000045D0E90F60012707FA00F0102D70607E
:100FE0000846636008BF1046A06008BF0A46E2607A
:100FF000F0BD7047EFF3108072B6FEE7F8B503F06E
:10100000BCF901D1022538E0012720460E4684F8BC
:101010003C70FFF7F1FE054668BB2764012E20688F
:10102000816821F08041816003D1816841F0804175
:101030008160816841F00041816000F047FF064611
:1010400020688068B0F1FF3F0EDC00F03FFF801B9E
:101050000B28F5D320688068B0F1FF3FF0DC012554
:1010600010206FF0120102E001206FF00301226CEA
:1010700011400843206403F0CEF82846F8BD000074
:10108000F0B504684FF0A043324AB4F1A04F08BF56
:1010900002F1F80390F83C50012D01D1022156E0F5
:1010A000A5686D0733D41546B4F1A04F08BF05F508
:1010B00080752E6876072AD4D1F800C0D2F8007364
:1010C00027F46047BCF1000F24D090F830E04E6860
:1010D00046EA4E363E43C2F80063A66806F00306B1
:1010E000012E02D12468E4072DD12C6804F00304FA
:1010F000012C02D11B68DB0725D1D2F8003340F662
:101100001F748968A343194341EA0C0119E003F0F5
:1011100063F819E0C2F80073A16801F00301012926
:1011200002D12168C9070ED1296801F00301012904
:1011300002D11968C90706D1D2F8001340F61F730F
:101140009943C2F800130021002280F83C20084691
:10115000F0BD00BF080000502DE9F04194B00446F6
:1011600068460E464C2115460430FFF7A5F903F0FA
:1011700020F812D0012084F83C00206881684907DB
:101180000BD4B0F1A04F0DD00020012784F83C0013
:10119000206C40F02000206400E00227384614B0A4
:1011A000BDE8F0811D48804600902046FFF74AFECA
:1011B000074620B96846FFF745FE074610B103F021
:1011C0002AF8EBE72168206C154A104000F5807082
:1011D0002064C868800104D5206C012262F30D30C0
:1011E000206400271C20114ADFF838C00E4B6764CA
:1011F000086084F83C70A06B00F1280E8EE80C109B
:101200002B464A6842F010024A6008F503713246E4
:1012100000F038FD206802F0EFFFBFE7000100504A
:10122000FEF0EFFFDD0D0008F30D0008930D000840
:10123000F8B50022009290F83C20012A01D1022149
:101240006DE1012280F83C20026893685B0700F1A1
:1012500009814C68042C0FD804EB4404D1F800C079
:101260001F2664000CFA04F506FA04F4166B26EA4D
:1012700004042C43146336E0092C12D804EB440315
:101280006FF01D04D1F800C01F2604EB43040CFAD4
:1012900004F506FA04F4566B26EA04042C4354635E
:1012A00021E004EB44035B000E2C0ED8D1F800C003
:1012B000A3F13C041F260CFA04F506FA04F4966B1D
:1012C00026EA04042C4394630DE0D1F800C0A3F196
:1012D0005A041F260CFA04F506FA04F4D66B26EA23
:1012E00004042C43D463946814F00C0F26D0936844
:1012F00003F00303012B03D11368DB0740F00B81DC
:101300000123894C03FA0CF5CB68012B42D1D2F8AA
:10131000B0302B430CEB4C05BCF10A0FC2F8B030D7
:101320004ED38968A5F11B030725994005FA03F3FD
:10133000956925EA03031943916130E00CEB4C04F5
:10134000BCF1090F4FF0140588BF1E3C88BF18255B
:10135000072356598F68A340A74026EA03033B435F
:101360005351D4680B695D1E032D00F2898006235A
:1013700003EA94034C699C40DFE805F002A9B3BD81
:10138000136E684D2B4043EA8C63234343F00043C4
:101390001366ACE7D2F8B010A943C2F8B010BCF1A4
:1013A000120F1ED0BCF1110F1FD0BCF1100F40F076
:1013B000B280D4F80013090200F1AD8001211BE0D6
:1013C000382356698968AB40033526EA0303A940F0
:1013D0001943BCF1110F516107D0BCF1120F40F05D
:1013E0009A80D4F80013490202E0D4F80013C9012E
:1013F0004FF0000100F190804FF0A045B2F1A04FF6
:1014000008BF04F1F805936803F00303012B02D130
:101410001368DB0726D12346B2F1A04F08BF03F5BE
:1014200080731B6803F00303012B02D12B68DB07D9
:1014300018D1D1B1B2F1A04F6DD1D4F80013B04A98
:1014400041F40001C4F80013AC490968B1FBF2F1A2
:1014500001EB810149000091009900295BD00099BE
:101460000139F8E702F0B8FE56E0BCF1110F4CD19B
:10147000B2F1A04F4FD1D4F8001341F0807148E091
:10148000136E4FEA8C6403F0F843A34203D1136E4A
:1014900023F000431366536E03F0F843A34203D1D5
:1014A000536E23F000435366936E03F0F843A34258
:1014B00003D1936E23F000439366D36E03F0F84399
:1014C000A3427FF414AFD36E23F000431BE0536EAE
:1014D000144D2B4043EA8C63234343F0004353668F
:1014E00005E7936E0F4D2B4043EA8C63234343F093
:1014F00000439366FBE6D36E0A4D2B4043EA8C63B0
:10150000234343F00043D366F1E6D4F8001341F4DB
:101510008001C4F800130021002280F83C20084616
:10152000F8BD00BF00F0FF030800005010B101201B
:1015300002F06ABA704710B1002002F065BA704735
:1015400070470000BCB5044600200190B4B3206C85
:10155000C00635D4206C0025A8BB20466564C4E9CC
:10156000125584F83C5000F0D3F820688068C00021
:1015700029D402F047FF0546206C00F010002843F4
:1015800021D12068216C41F2021291430231216481
:10159000816821F040518160816841F08051816013
:1015A000564857490068B0FBF1F000EB800040005E
:1015B0000190019830B101980138F9E70120BCBDD4
:1015C000002512E0002520688168C90002D58068E6
:1015D00080000AD5206C012540F0100020F00200A8
:1015E0002064606C40F001006064206C00F010002A
:1015F00028434AD120688168490746D4216C4FF0BE
:10160000A04221F48171023121643E49B0F1A04F22
:1016100008BF01F1F802836803F00303012B02D134
:101620000368DB0715D10B46B0F1A04F08BF03F5E7
:1016300080731B6803F00303012B02D11268D207E9
:1016400007D16268D1F8003323F440331A43C1F85C
:101650000023627E616B530303F58053012908BFA9
:101660005303D4E902152943194394F82030012B80
:1016700015D17AB1226C42F0200222F002022264DB
:10168000626C42F00102626409E0012010216FF0F7
:1016900012022EE0626A1C4B03EB42421143A26A23
:1016A000012A02D0E36A19431143826812F00C0F39
:1016B0000BD1C26844F202039A43C260227E94F8BE
:1016C0003030920342EA43021143C2680F4B1A4082
:1016D0001143C160016B226921F00F01012A02D17F
:1016E000E269013A11430163002001216FF0030216
:1016F0006064236C1A4011432164BCBD14000020B7
:1017000040420F00080000500000FFFF07C0F0FF3C
:1017100070B586B0044601A81421FEF7CDFE2068FE
:101720002749884232D0B0F1A04F46D1254D2968D3
:10173000481C2860F74809B902F0A7FC0168002698
:1017400002F0E4FC0320039602900620019000982A
:1017500001A94FF0904000F0DBFA1B4928464FF4F6
:101760000072802340F8041F4FF40061C0E9016655
:10177000C0E90332C0E90516C66100F051FA08B1AC
:10178000FFF738FC281DAC62A06316E00D48016825
:101790004A1C0260DF4809B902F077FC016802F0D8
:1017A000B5FC002003900320029090200190009847
:1017B00001A94FF0904000F0ABFA06B070BD00BF39
:1017C000000100509C0000200800024010B502F00B
:1017D000C0FD02D402F0EDFC01D1022010BD02F0E8
:1017E00058FE08B102F068BD02F096FD1B4902F0F8
:1017F00027FD0AD02068B0F1A04F06D002F018FDF6
:101800000CD1084650F8F42B01E002F03BFD9201A8
:1018100004D5226C012363F30D322264226C002371
:10182000D20444BF636C23F0060302F054FDD1F8E8
:10183000FC22D2060ED0D1F8FC2202F01F02052AAB
:1018400008D0D1F8FC1201F01F01092918BFB0F12E
:10185000A04F01D102F0D0FC002010BD0C000050C0
:10186000B0B5554A0468012102F108039C420D4BB2
:1018700008BF4FF08041944208BF4FF48001CCB2C2
:1018800002F57D721D46002C08BF15462D682942C1
:1018900008BFB0BD002C08BF13461960BDE8B040BA
:1018A00000F08CB834040140FEB5002855D0044641
:1018B00090F82900C00650D42948016841F0010180
:1018C0000160006800F0010002900298204600F0DC
:1018D0004DF894F8290010B9002084F828006268B7
:1018E000602A05D1206834491E4A884208BF602218
:1018F0000020626004F108060190216868CE0F683C
:101900000197194FBC46019F07EA0C073A43019221
:10191000019A1A430192A269019B23F440231A43BE
:101920000192AA0A019B62F38D230193019A22F48A
:10193000004232430192019A63691A430192019A6B
:10194000E3691A430192019A236A1A430192019AA8
:101950000A60012184F82910FEBD0120FEBD00BFF0
:1019600018100240700040008FFFBFFFFEB50068F6
:10197000114A0021CDE9041190421BD1654802684B
:1019800042F400320260006800F40030009003204E
:101990000391029080200190009801A94FF090409F
:1019A00000F0B6F940200021002200F0C3FF4020E3
:1019B00000F0B0FF06B080BD2000014070477047C6
:1019C000B0B544790223012C26D00371134C03686F
:1019D0005C40144340F6FE7404FA02F46FEA040417
:1019E00004BF4FF20104CFF6FF741D6804EA05043A
:1019F0004FF0080508BF04254D5909682943914057
:101A000021431960C02191401A6822EA010119603E
:101A100000230121437101711846B0BD00740040DC
:101A2000704710B5044600680168890413D5416BFE
:101A3000890410D504212171216941F0010121613E
:101A40004FF400514163016821F480510160204648
:101A5000FFF7E6FF20680168890002D5416B890025
:101A600000D410BD04212171216941F002012161DE
:101A70004FF000514163016821F080510160204620
:101A8000BDE81040FFF79BBF78B110B50446007960
:101A900020B900206071204600F00AF802200121E0
:101AA000207100202061217110BD012070470000CD
:101AB000FEB50068164A0021CDE90411904224D1F8
:101AC0001448826842F080628260826802F080621C
:101AD0000092009A026842F400320260006800F44A
:101AE0000030009003200391029040200190009864
:101AF00001A94FF0904000F00BF93720002100229F
:101B000000F018FF372000F005FF06B080BD00BFD1
:101B1000009800401410024010B590F821100229DE
:101B200011D10168D0E90F230C6824F00E040C6079
:101B30000C6824F001040C60012180F82110994008
:101B40005160002102E0042181630121002280F81C
:101B50002020084610BDB0B590F82110022915D1FB
:101B60000268416BD0E90F34156825F00E05156049
:101B7000156825F0010515604FF48072028401227A
:101B8000A2405A6001B188470020B0BD04218163A2
:101B90000120B0BDF0B5D0E90F13026804240E682F
:101BA00004FA03F51468354201D0670719D40225F9
:101BB0009D40354201D0A7071DD426FA03F52D0715
:101BC0002CD524072AD5146824F00E0414600122B1
:101BD00002FA03F34B604FF4807101848263016B5E
:101BE00018E013689B0603D4136823F00403136002
:101BF0004D60C16A0EE013689B0606D4012380F88D
:101C00002130136823F00A031360002280F820209B
:101C10004D60816A11B1BDE8F0400847F0BD000099
:101C200048B32DE9F041D0E9001E00F1100CD0E9D5
:101C3000028443F6F0739CE8E0100A689A434FF47C
:101C4000807342EA0E0242EA080222432A433243E8
:101C50003A4342EA0C020A600384094B074A1944DA
:101C60001423B1FBF3F18900C0E90F210021816346
:101C7000BDE8F04100E00121084670470000024045
:101C8000F8FFFDBFB0B5044690F8200001281DD034
:101C9000012084F8200094F82100012813D10020AD
:101CA000A063022084F821002068056825F0010562
:101CB00005602046FFF78AF92068E26A01683AB1B8
:101CC00041F00E010AE0002084F820000220B0BD9F
:101CD00041F00A010160016821F00401016001681E
:101CE00041F0010101600020B0BD0000B0B5044624
:101CF00000F0ECF805460548611C007818BF044464
:101D000000F0E4F8401BA042FAD3B0BD0800002068
:101D10002DE9FC4F5D4A05234FF0000B4FF0000EFC
:101D2000904208BF03230093012700250B6833FA74
:101D300005F408BFBDE8FC8F07FA05F813EA080AA6
:101D400000F09E8003224C6802FA0EF36FEA03094A
:101D500004F00303A3F1010CBCF1010F13D8826856
:101D600002EA090CCA6802FA0EF242EA0C02826028
:101D7000C4F3001202FA05FC426822EA080242EAB1
:101D80000C02426003E0032B01D103231DE0C26873
:101D90008E6802EA090206FA0EF63243022BC2608E
:101DA00013D16FF003040BF01C020F2304EA550457
:101DB00093400444266A26EA03030E6906FA02F2F7
:101DC0001A4322624C6804F0030303FA0EF203681C
:101DD00003EA09031A4314F4403F026050D02E4B2B
:101DE000B0F1904F1A6842F001021A601A68284B4D
:101DF00002F00102A3F57E780192019A25F0030218
:101E000058F802C008D0254A904207D0244A009EC4
:101E1000904208BF022602E0002600E001260BF0F7
:101E20000C020F231A4F03FA02F406FA02F2AB086F
:101E30002CEA0404224348F823203A684C6842EA1A
:101E40000A03E60358BF22EA0A033B60A6037A6846
:101E500042EA0A0358BF22EA0A037B60E602BA6834
:101E60000C4E42EA0A0358BF22EA0A03BB60A402EE
:101E7000326842EA0A0358BF22EA0A0301273360A4
:101E80000BF1040B0EF1020E01354FE7000C004878
:101E9000000401400C0401401810024000040048F6
:101EA000000800480069084018BF012070474269D7
:101EB00002EA0103914341EA03418161704718231B
:101EC000002A08BF2823C15070470000014800685D
:101ED000704700BFA00400207047704770477047EC
:101EE0007047704770477047704710B502F0D1F9DE
:101EF00010D080F8C120012280F8C02002684C1C5C
:101F0000D2F8CC3302D002F057FA01E023F00201FC
:101F100002F0A3F9104610BD7047B0B502F04DF9BC
:101F200004BF0220B0BD94F8C0300220012B07D0BE
:101F300084F8C10002F0BDFA01F03CFC02F054FA52
:101F4000B0BD90F8C120022A01D1022216E04DF85E
:101F500008ED02F09EF95DF808EB0FD080F8C12083
:101F6000890F0268D2F8B83361F39F730121C2F878
:101F7000B833002280F8C02080F8C11010467047A6
:101F800070477047704770477047022A07D0012A90
:101F90000BD1006800EBC110D0F8B00070470068AA
:101FA00000EBC110D0F8B4007047724602F02DFA71
:101FB00096464FF0FF3070472DE9F0410446052961
:101FC00047D00D46FF2940F099802068D0F88863FB
:101FD000D0F89053F10706D0E90704D0012102F0B0
:101FE000F5F9FFF7CDFFB00707D5A80705D520689D
:101FF000022102F0EBF9FFF7C4FF700707D568076D
:1020000005D52068042102F0E1F9FFF7BBFF300796
:1020100007D5280705D52068082102F0D7F9FFF772
:10202000B2FFF00607D5E80605D52068102102F0BA
:10203000CDF9FFF7A9FFB00640F1F480A80640F102
:10204000F1802068202102F0C1F9BDE8F04100F0E4
:10205000DEB92068D0F88853D0F890734668D0F87D
:102060000C80E9030DD5F9030BD54FF48031C0F88E
:102070008C1302F09DF9012084F8C1002046FFF77F
:1020800033FFA80308D5B80306D520684FF4003104
:1020900002F09CF9FFF720FFF00718BF5FEAC87055
:1020A00040F0CB80B00748BF5FEA887000F1CC8079
:1020B000700748BF5FEA487000F1CD80300748BF25
:1020C0005FEA087000F1CE80F00648BF5FEAC860A2
:1020D00000F1CF80B00648BF5FEA886000F1D08091
:1020E000700648BF5FEA486040F19C80206840214C
:1020F00002F0B3F9BDE8F04100F086B9206800EBCA
:10210000C510D0F88470D0F88C60F90708D0F107BA
:1021100006D00121C0F8881020462946FFF7DFFECF
:10212000B80707D5B00705D52068022101F0D6FF12
:10213000FFF7D6FE780707D5700705D5206804217C
:1021400001F0CCFFFFF7CDFE380707D5300705D5E6
:102150002068082101F0C2FFFFF7C4FEF80607D58A
:10216000F00605D52068102101F0B8FF00F04DF908
:10217000780607D5700605D52068402101F0AEFF2E
:1021800000F042F9380607D5300605D520688021D1
:1021900001F0A4FFFFF7A1FEF80508D5F00506D56C
:1021A00020684FF4807101F099FFFFF797FEB805A2
:1021B00008D5B00506D520684FF4007101F08EFFF8
:1021C00000F003F9780508D5700506D520684FF4AE
:1021D000806101F083FF00F0F7F8380508D530057D
:1021E00006D520684FF4006101F078FF00F0EFF8A9
:1021F000F80408D5F00406D520684FF4805101F0AA
:102200006DFF00F0E3F8B80408D5B00406D52068E7
:102210004FF4005101F062FFFFF765FE780401D52D
:10222000700401D4BDE8F08120684FF4804101F0D2
:1022300055FFBDE8F041FFF76FBE2068012102F0B5
:102240000CF9FFF74CFE2DE72068022102F005F99A
:10225000FFF746FE2CE72068042102F0FEF8FFF7A6
:1022600040FE2BE72068082102F0F7F8FFF73AFE5E
:102270002AE72068102102F0F0F800F0C6F829E7FC
:10228000206820218160204600F0C0F828E7000087
:10229000002846D07CB504460220182184F8C100ED
:1022A00004F1C400FEF708F9207AC00719D02068AD
:1022B0004249884209D11C490A6842F000520A602A
:1022C000096801F00051019101990168D4E90423E2
:1022D00021F4704102F44042114403F4405211448D
:1022E0000160204600F022F8207A800706D5206899
:1022F000E1680268090A61F30922026000250026EC
:10230000012084F8C05084F8C100A82E04BF00202A
:102310007CBDA019142105631830FEF7CDF81C36DA
:10232000F3E70120704700BF18100240FEB50068B7
:102330002249884227D12248416841F0005141603A
:10234000416801F000510191019901F0A8FE0020BF
:1023500004900220CDE9020040200190009801A9DC
:102360001848FFF7D5FC44200121002200F0E2FAD2
:10237000442000F0CFFA46200021002200F0DAFAD3
:10238000462000F0C7FA06B080BD00BFFEB5006869
:102390000A49884210D10A4801F081FE03200490C6
:1023A00000200390022002904FF4405001900098CA
:1023B00001A90448FFF7ACFC06B080BD00740140E1
:1023C000141002400004004870477047704770477F
:1023D000F8B50D460446FFF779FD06466F1C2068E8
:1023E000D0F88803C0030CD4002FF8D0FFF76EFD9F
:1023F000801BA84201D8002DF1D101F068FF032015
:10240000F8BD02F03CF8F8BD704770477047704760
:1024100070B590F8C1400223022C29D080F8C13059
:10242000052903680DD1196892E87000D26826F07A
:10243000180621F01F013143114319605C619D6151
:1024400012E003EBC111D1F8803092E87000D2683D
:1024500026F0180623F01F0333431A43C1F88020E7
:10246000C1F89440C1F898500121002380F8C110B0
:10247000184670BDB0B590F8C140022C01D10224BD
:102480001CE001F0D8FF19D080F8C1400124022AD5
:1024900080F8C04006D0012A09D101F0C7FFC1F879
:1024A000DC2006E001F0C2FFC1F8E02001E001F00D
:1024B000ACFF01F0DAFF01D001F053FF2046B0BDC0
:1024C0004DF808ED01F0E5FE5DF808EB09D080F865
:1024D000C1200268136819431160734601F052FF6E
:1024E0009E46104670470000F0B501F0D2FE23D0A2
:1024F00001F0E7FF2343C2F89033CB0304D5D0F8B3
:10250000AC30D4682343D360324D00F12003232440
:10251000C32C0CD02E680E4205D052F824601F68E0
:102520003E4342F824601C3304352034F0E713683E
:102530001943116001F026FF1046F0BD4DF808ED7B
:1025400001F0A7FE5DF808EB0AD080F8C120026810
:10255000136823EA01011160734601F013FF9E46E0
:1025600010467047F8B540F27F120092022290F8B0
:10257000C030012B2CD001F0A4FF24EA0303C2F8E1
:102580009033CB0305D5D0F8AC30D46824EA0303EC
:10259000D360104D00F120032324C32C0CD02E68EF
:1025A0000E4205D052F824601F68BE4342F82460F2
:1025B0001C3304352034F0E7009B013B0093009B63
:1025C000002BF9D1136823EA0101116001F0DAFE52
:1025D0001046F8BDB4740008B0B501F0EEFD04BFBC
:1025E0000220B0BD94F8C0500220012D07D084F81D
:1025F000C10001F05EFF01F0B5F901F0F5FEB0BDDC
:102600004DF808ED01F045FE5DF808EB0BD080F8C1
:10261000C1200268D2F894331943C2F89413734668
:1026200001F0B0FE9E46104670474DF808ED01F0EF
:1026300030FE5DF808EB0BD080F8C1200268D2F8BC
:1026400098331943C2F89813734601F09BFE9E46D7
:10265000104670472DE9F04F8EB001F0CBFE01D14E
:102660000223DFE001F070FD00F0DC8080F8C13073
:1026700001236E4DD0F80080052980F8C03028D1A4
:10268000D8F80040D2E90567D2E9073C2C40203554
:1026900023F06E4335402C436E4D3D402C436E4D30
:1026A00023432CF068442343546A2343946A23F061
:1026B000604305EA8404156B2C432343D8F8A043F8
:1026C000C8F80030D36A24F480342343C8F8A03318
:1026D00090E008EBC1142646A646A24656F8803F75
:1026E00023F070433360336807935EF8E83F0D933F
:1026F0005AF8E4BF136B0893D2E90D930B93D36B95
:10270000B9F1000F0C93936C0A93136D09935369FD
:10271000019393690293D3690393136A0493536AF1
:102720000593936A0693D8F8A0C306D1176C2B467D
:102730002BF4807547EA050B1D46576C47F4805310
:10274000B3F5F05F02D1B9F1400F03D12BF4F05390
:1027500043EA070BD36C042900930BD834A34F1C16
:1027600053F8213003EA0C03AC46D56ABD402B4335
:1027700065469C46079B019F2B4020353D40029FAC
:102780002B43304D2F4005F580653B43039F3D4073
:10279000049F2B432C4D2F4005F100653B43059FC3
:1027A0003B432B40069D25F400352B43089DB5F196
:1027B000005F08BF03F50033099F244D2B4029F02B
:1027C000FE7527F0FC773D430A9F3D432B43336062
:1027D0001F4B0D9D2B400B9D05F01F052B440C9DA1
:1027E0002B43CEF80030CAF800B0009BC4F8D430B8
:1027F000C8F8A0C3C1EBC10392E8F0001269052933
:1028000000EB830303F1200C1A63ACE8F00007D857
:1028100012A252F82110D8F884231143C8F8841367
:1028200001F04EFD18460EB0BDE8F08FDFF3FFF16A
:10283000FFFFFDFFFFFFFBFFFFFFF7FFFFFFEFFFC6
:10284000FFFFDFFFFFFBFD01FFFFFD07BFFF03FEF3
:10285000E0FFFF7FFFFBFF11FCFFFFDF0200000036
:10286000040000000800000010000000200000002C
:10287000010000001A48034900780A681044086003
:10288000704700BFA004002080B5D148016841F026
:1028900010010160032000F073F80F2000F004F82D
:1028A00000F020F8002080BD70B50D4E04464FF4B6
:1028B0007A713078B1FBF0F0CD490968B1FBF0F0E6
:1028C00000F026FB01250F2C08D838B94FF0FF3057
:1028D00021460022002500F02DF87460284670BDC6
:1028E0000800002082B00A48016841F0010101603F
:1028F000016801F0010101910199416841F08051A5
:102900004160406800F080500090009802B070472D
:1029100018100240002809D4734601F00EFC9E46B0
:10292000034A42EAD00020F003000160704700BF74
:1029300000E100E0F0B5184B4FF0FF361C68C4F31F
:102940000224E51E84F0070438BF002506FA05F7C7
:10295000BA43042C28BF042406FA04F4A14300F06F
:102960000F04A940043C1143044A234409010244D2
:10297000002848BF03F10C021170F0BD00E400E034
:1029800005494FF6FF030A681A4060F30A2203481C
:1029900010430860704700BF0CED00E00000FA052E
:1029A0002DE9FC4104468078404EC00743D0306892
:1029B00010F0805808D1306840F0805030603068A6
:1029C00000F0805001900198394F3868C00511D44B
:1029D000386840F480703860FFF778FA0546386848
:1029E000C00507D4FFF772FA401B6428F7D903200B
:1029F000BDE8FC81706810F440700FD0616801F48C
:102A0000407188420AD02B49706801220A60002276
:102A10000A6020F44071C007716038D16068716845
:102A200021F440710843B8F1000F706003D13068A1
:102A300020F0805030602068C10705D0A16872691D
:102A400022F0030211437161810605D5E1687269C4
:102A500022F0100211437161010605D52169326926
:102A600022F4F87211433161C10405D561697269BC
:102A700022F4807211437161400405D5A069716927
:102A800021F48051084370610020BDE8FC81FFF70C
:102A90001DFA054641F2883770688007BED4FFF7FB
:102AA00015FA411B0320B942F6D9EEE71C1002408B
:102AB00000700040400442422DE9F84300285ED0F7
:102AC0000D4643490446086800F00700A84209D2B1
:102AD000086820F0070028430860086800F0070035
:102AE000A8424CD12068514B8946810705D5A16881
:102AF0001A6822F0F00211431960C00736D1D9F8E4
:102B0000000000F00700A8420CD9D9F8000020F01E
:102B100007002843C9F80000D9F8000000F00700BA
:102B2000A8422CD12068410705D5E1681A6822F433
:102B3000E06211431960000706D52069196821F485
:102B4000605141EAC00018601C4600F055F8216849
:102B5000204AC1F30311515CC840254908601E4852
:102B60000068FFF7A1FE0020BDE8F8836068022836
:102B700008D0012826D153F8041C890306D401206B
:102B8000BDE8F88353F8041C8901F8D51968984604
:102B900021F0030108431860FFF798F9064641F257
:102BA00088376068D8F80010434601F00C01B1EB9B
:102BB000800FA4D0FFF78AF9801BB842F1D9032017
:102BC000BDE8F88353F8041C8907D8D5DEE700BFB9
:102BD000002002409C7400080C00002004481349A7
:102BE000044A00680968C1F30221515CC84070477B
:102BF00014000020AC74000810B50C490C480A6899
:102C000002F00C03082B08D10A4CC2F38343896AF3
:102C1000D203E35C02D40948584310BD064A01F0D0
:102C20000F01515CB0FBF1F0584310BD041002409D
:102C300000127A00CC740008DC74000800093D0022
:102C40002DE9FC4100287ED004460078AD4EC00737
:102C500044D0706800F00C00042805D1306880036F
:102C60003CD56068D0BB6EE001F062FA02D17068BA
:102C7000C003F3D467682FB1B7F5A02F0AD0B7F51A
:102C8000803F0BD0306820F480303060306820F412
:102C9000802006E0306840F480203060306840F4E6
:102CA00080303060A068F16A21F00F010843F062C3
:102CB000FFF70CF9054677B1306880030ED4FFF7B3
:102CC00005F9401B6428F7D9F7E0FFF7FFF8411B2F
:102CD0000320642935D830688003F6D42078800733
:102CE00016D5706810F00C0F05D001F021FA61D1F3
:102CF0007068C0035ED43068800702D5206901285F
:102D000021D16069316821F0F80141EAC0003060EA
:102D1000207800071AD4207840072AD4E7697FB1C9
:102D200001F006FA73D1012F0DD0216A706800F40A
:102D300080328A4207D1616A00F47010884202D161
:102D40000020BDE8FC810120BDE8FC81A0690028CD
:102D50004CD06D480121C0F88014FFF7B7F8054644
:102D6000706A8007D7D4FFF7B1F8401B0228F7D963
:102D7000A3E0F06910F0805808D1F06940F080506D
:102D8000F061F06900F08050019001985F4F386861
:102D9000C00521D4386840F480703860FFF796F899
:102DA00005463868C00517D4FFF790F8401B642823
:102DB000F7D982E021695448002947D001210160F8
:102DC000FFF784F80546306880079AD4FFF77EF84D
:102DD000401B0228F7D970E0E068002846D005289B
:102DE00056D0012858D001F071F958E0464800212A
:102DF000C0F88014FFF76AF80546706A80077FF50F
:102E00008AAFFFF763F8401B0228F6D955E03E4928
:102E1000002088460866FFF759F80546022F0AD1B8
:102E200047463068800154D5FFF750F8411B032016
:102E30000229F6D985E7306880017FF581AFFFF779
:102E400045F8411B03200229F5D97AE700210160EA
:102E5000FFF73CF80546306880077FF559AFFFF76C
:102E600035F8411B03200229F5D96AE701F02EF954
:102E70003062FFF72BF8054641F28837306A800749
:102E80001ED5FFF723F8411B0320B942F6D958E7B6
:102E9000306A40F004003062306A40F00100306275
:102EA000FFF714F8054641F28837306A800707D4E7
:102EB000FFF70CF8401BB842F7D90320BDE8FC81AE
:102EC000B8F1000F7FF42AAFF06920F08050F06174
:102ED00024E7D4E90801726822F47412114308430C
:102EE000706001203866FEF7F1FF0446306880010B
:102EF0003FF526AFFEF7EAFF011B03200229F5D9B3
:102F00001FE700BF00100240000042420070004076
:102F1000411E0020B0EB116F1CBF01207047044A16
:102F2000F023516003490B700721906011607047D6
:102F300010E000E023ED00E07047704770470000AC
:102F400070B590F83C300222012B26D080F83D204D
:102F50003F4C026855689368A24203D14E6825F43D
:102F6000700535430E6825F070053543B2F1804F8A
:102F7000556007D0344DAA4204D0344DAA4201D046
:102F8000A24204D1896823F0800319439160002292
:102F9000012180F83C2080F83D10104670BD00BF34
:102FA00058B110B501F066FA03D101F0FCF900F058
:102FB00007F801F0B8FA01F0CCB801207047000022
:102FC000E0B500689249884218BF8CBD09480022CC
:102FD000016841F0100101600021006800F010005C
:102FE000019001983620FFF7A5FC3620BDE88C4003
:102FF000FFF790BC1C10024090F83D1001291CBF47
:1030000001207047022180F83D100168C868B1F1C5
:10301000804F40F00100C86008D00B48814205D0C5
:103020000A48814202D00A4881420AD18868094A86
:10303000734601F016FA9E4602D0B2F5803F00D1E9
:10304000704701F030BA00BF00040040004001406A
:10305000002C014007000100016841F21113CA6809
:1030600022F00102CA600A6A1A4208D10A6A40F2D2
:1030700044431A4203D10A6822F001020A6001F0B7
:103080003EBA704710B5044600680169890712D539
:10309000C16889070FD56FF0020101610121217715
:1030A0008069800702D001F009FA01E001F092F98D
:1030B0000020207720680169490713D5C1684907B6
:1030C00010D56FF00401016102212177806910F4AD
:1030D000407F02D001F0F2F901E001F07BF900201D
:1030E000207720680169090712D5C16809070FD543
:1030F0006FF00801016104212177C069800702D0C7
:1031000001F0DCF901E001F065F90020207720688A
:103110000169C90613D5C168C90610D56FF0100141
:10312000016108212177C06910F4407F02D001F0CD
:10313000C5F901E001F04EF900202077206801690F
:10314000C90709D0C168C90706D06FF00101016144
:10315000204600F039F820680169090609D5C168E0
:10316000090606D56FF0800101612046FFF7E5FEF4
:1031700020680169C90509D5C168090606D56FF43B
:10318000807101612046FFF7D7FE2068016949067A
:1031900009D5C168490606D56FF040010161204696
:1031A00000F03CF820680169890602D5C1688906EB
:1031B00000D410BD6FF0200101612046BDE8104031
:1031C000FFF7BCBE70477047B0B500681049884231
:1031D00000D0B0BD0F4C20790028FAD0E0780E283E
:1031E00006D0012810D10520002100F0A7FC0BE03B
:1031F000012001F094F90025A070E348FEF75FFE7E
:103200000548FFF729FF2571E0780130E070B0BD77
:1032100000100040F80000204C0300207047704769
:103220007047704770B50446006840F60F03C269E6
:10323000016885681A4261D08D4B01EA030605F0EA
:103240000103F6185ED0D50709D0CD0507D50125B5
:103250000562D4F8805045F00105C4F88050950708
:1032600008D53BB102250562D4F8805045F004052D
:10327000C4F88050550708D53BB104250562D4F841
:10328000805045F00205C4F8805015070BD501F0B9
:1032900020055B1907D008230362D4F8803043F07F
:1032A0000803C4F8803013050AD54B0108D54FF444
:1032B00000630362D4F8803043F02003C4F8803008
:1032C000D4F88030002B00F0D280920606D5890613
:1032D00004D5616E11B1204688472068D4F880106B
:1032E000806801F0280100F04000401837D12046E6
:1032F000FFF797FF0020C4F88000B8E0930601D5DF
:103300008B0644D4236E012B03D1D30601D5CB0603
:1033100044D4D30201D56B0219D4100601D5080696
:1033200033D4500640F1A380480640F1A08001F05C
:103330000BF820F0400001F0B2F8F8D10020A066B0
:103340002020A0672046BDE8704000F081B94FF40E
:10335000801101622046BDE87040FFF761BF204642
:1033600001F0A3FA2068806840064BD500F00CFFFE
:10337000FCD1206F002845D03E494163FEF7EBFBAE
:10338000002874D0206F416B05E0A16E00E0616EF3
:1033900000296CD02046BDE870400847102101622A
:1033A0008068400633D4B4F85A00B4F85810B4F822
:1033B0005A20002A5BD0814259D0081A216851E86E
:1033C000001F226821F4907142E80013002BF5D110
:1033D000216851E8021F226821F0010142E802132E
:1033E000002BF5D12021E16700216166216621686B
:1033F00051E8001F226821F0100142E80013002B61
:10340000F5D12EE02046BDE87040FFF70ABF216FDE
:103410000868426893B253B3B4F85800834226D286
:10342000A4F85A208969202918D000F08DFF20F4D3
:10343000807001F034F8F8D100F057FEFCD100F0B4
:10344000A3FEFCD12020E0670020206600F0A1FF51
:10345000FCD1206FFEF760FBB4F85800B4F85A10A6
:10346000401A81B22046BDE87040FFF7D8BE70BD5B
:1034700020010004D947000810B540B10446806F10
:1034800008B901F046F800F0C7FF012801D101207A
:1034900010BD606A08B100F061FF00F042FF21F04A
:1034A0002A01816000F07FFEBDE8104001F06CB998
:1034B000B0B586B0044601A81421FCF7FDFF2068D2
:1034C0002E4988423CD02E49884254D12D4841682B
:1034D00041F480414160416801F4804100910099CC
:1034E000016841F400310160006800F4003000F030
:1034F00015FE4FF4C0600190009801A94FF0904074
:10350000FEF706FC214D224B002020218022C5E938
:103510000030C5E90202C5E90400C5E906102846E5
:10352000FEF77EFB08B1FDF765FD25200521002291
:103530006C622567FFF7FEF92520FFF7EBF91AE02B
:103540001048816841F480218160816801F4802104
:1035500000910099016841F480210160006800F445
:10356000802000F0DBFD4FF440600190009801A93D
:103570000548FEF7CDFB06B0B0BD00BF00480040D7
:103580000038014014100240000400482C020020C2
:1035900058000240B0B5C36F202B05D131B12AB11C
:1035A00090F87430012B03D10220B0BD0120B0BDD2
:1035B00000F035FE02D500F024FEFCD1BDE8B0409D
:1035C00001F02EBAB0B5054C05480122012504F1E1
:1035D0000901FFF7DFFFA572B0BD00BFF8000020B2
:1035E0009803002070470000836F202B05D131B174
:1035F0002AB190F87430012B03D1022070470120CA
:1036000070470023A0F85220C0F88030C164212107
:10361000A0F8502081678168B1F5805F01D1016910
:1036200009B10A4900E008490022816680F8742047
:10363000016851E8001F026841F0800142E8001370
:10364000002BF5D100207047A14A0008ED4A000880
:103650007047000070B5544C00210122002620461E
:10366000FEF793FC444D002128612046FEF7A4FCA0
:10367000287828B1D5E903012E700844286100E0BC
:10368000286944F2E8413D4A3D4E441A00219442E3
:103690004FF0000288BF01226B78B4420CD35BB1BB
:1036A000697951B3AA780121E970531C91402A89A4
:1036B000AB701143298123E0B3FA83F342F6C704C8
:1036C0005B091A43A0F6D913A34238BF0121114266
:1036D00001D0012115E043F2C52143F2B263411A42
:1036E000994225D80AB9002169706979A1B3E860C7
:1036F0000120E870A878013029E0E9790131E97109
:103700000021E8606970A878C0B20B280FD10121B0
:103710001D4A0020A9712989A870288111801B49A0
:103720000A7801320A70D1B2032900D1687170BDE4
:10373000410986290DD801212970E9680844E8600B
:10374000E8780028DFD00020E870A8780138A87059
:10375000DAE70C4806210AE0E879042805D30020BE
:103760002881E8710120A870E0E706480521017072
:1037700001202871C7E700BFE4000020F8CBFFFF5D
:10378000F9CBFFFFFE00002008010020FD00002013
:1037900080B505480221FEF70FFC0448007810B1FF
:1037A00003480121017080BD70020020000100204B
:1037B000FF00002070B500680A29D0F8B043D0F8A7
:1037C000B453D0F8B83300F2CB80DFE801F0060E36
:1037D000223446586C8293A4B5000021C0F8B0137F
:1037E000C0F8B413C0F8B81370BD24F03F0192E8DC
:1037F0003800126903F0030302F02002194404F0B8
:103800000403194405F018031944C0F8B013114417
:1038100046E092E82A0024F47C64126903F0040371
:1038200061F3871400F05EFD44EA8111C0F8B01323
:1038300041EA821134E092E82A0024F47C341269CF
:1038400003F0040361F30D3400F04CFD44EA013150
:10385000C0F8B01341EA023122E092E82A0024F4D1
:103860007C04126903F0040361F3934400F03AFD11
:1038700044EA8141C0F8B01341EA824110E092E885
:103880002A0024F07C54126903F0040361F31964E4
:1038900000F028FD44EA0161C0F8B01341EA02617A
:1038A000C0F8B01370BD25F01F0192E87000D26817
:1038B00004F00304214405F00404214406F0180434
:1038C0002144C0F8B413190961F31F12C0F8B823DA
:1038D00070BD92E8520025F4F865D26804F0040443
:1038E00061F3871506F0180162F38913214445EA54
:1038F000811131E092E8520025F4F835D26804F0E5
:10390000040461F30D3506F0180162F30F3321440E
:1039100045EA013120E092E8520025F4F805D2682A
:1039200004F0040461F3934506F0180162F3954333
:10393000214445EA81410FE092E8520025F0F85514
:10394000D26804F0040461F3196506F0180162F30B
:103950001B63214445EA0161C0F8B413C0F8B833D1
:1039600070BD0000F0B50068571E0024072F00EB63
:10397000C116B6465EF8E45F5EF82CCC0ED9102A6C
:1039800014D0202A1AD0402A10D0802A18BFB2F5AD
:10399000007F13D0B2F5807F08D016E00FF204024A
:1039A000DFE807F0040C13041313130CD3E901240C
:1039B000C6F8BC20C6F8C040002406E0D3E90124C4
:1039C000C6F8C420C6F8C8401024FE22996903F145
:1039D0000C071868A24025EA0202E0CF39433143C0
:1039E00029430843A0400243082E08D11CF400706C
:1039F00008BF1CF0007002D1D869A0400243CEF885
:103A00000020F0BDFEE7000070B52DED088B464D9F
:103A10006978EA78AC7801320131EA70697000287F
:103A200018BF012095ED021A05EB80000069020C19
:103A3000A88080B200EE102AC5E90602EA80B8EE3E
:103A4000400A31EE000A85ED020A4CB102EE100A7E
:103A500095ED031AB8EE422A31EE021A85ED031AEB
:103A60002878C9B281420CD27E48FDF7AFFE664885
:103A700005F110010222BDEC088BBDE87040FDF796
:103A80006BBB01EE100A9FED299A9FED29AAB8EEB3
:103A9000418A00F0ECFA85ED020A03F005FC9FED87
:103AA0001A0B53EC102B02F0EDFF9FED190B00F0F9
:103AB00026FB02F001FF1F4E3060F4B195ED030AC2
:103AC0000BEE100A00F0D3FA85ED030A03F0ECFBCD
:103AD0009FED110B00F013FB9FED110B00F00FFB9E
:103AE00002F0EAFE00EE100A7060022C2BEE000AD3
:103AF00086ED030A04BF0020B0600F480121017069
:103B0000BDEC088B70BD00BFCDCCCCCCCCCCFC3F89
:103B1000D34D62105839F03FD712F241CF463640AC
:103B20006891ED7C3F35F03F7800002033335340FF
:103B300000008039140100200401002070B5054602
:103B400048480C46FDF742FE064E2F48022206F179
:103B50001001FDF701FB0020B4703570C6E90200CA
:103B6000707070BD78000020B0B58AB000241821B4
:103B70000994CDE9074401A8FCF79EFC22480225E0
:103B800001214FF480324FF0A043C5610425C46287
:103B900080F82040816280F8304044630483C0E9AB
:103BA0000032C0E90244C0E90415FDF7CBFC08B1BE
:103BB000FDF720FA4FF40040099408900620079082
:103BC000114807A9FDF75CFA08B1FDF713FA0020C8
:103BD0000121022403250490CDE905000A48029141
:103BE0000194039501A9FDF723FB08B1FDF702FA43
:103BF0000548CDE9015401A9FDF71AFB08B1FDF70D
:103C0000F9F90AB0B0BD00BF48010020B0B586B0D8
:103C10001448154A00244FF480310125042380F80C
:103C2000204080F83040C56144630483C0E900212E
:103C3000C0E90244C0E90443FDF784FC08B1FDF784
:103C4000D9F903206946CDE900550594CDE903442F
:103C500002900448FDF7ECFA08B1FDF7CBF906B085
:103C6000B0BD00BF980100200001005010B50B4806
:103C700001210B4C4FF480032A2241620021C0E94C
:103C800000438161C0E902120161FDF70DFE18B128
:103C9000BDE81040FDF7AEB910BD00BFE80100203F
:103CA000200001401FB50B480B490024029401601D
:103CB000FDF7EAFE08B1FDF79DF90220019400220C
:103CC0000390044801A9FDF77BFE08B1FDF792F9C6
:103CD0001FBD00BF1802002000980040E0B5414819
:103CE0000022016841F0010101600021006800F03C
:103CF0000100019001980B20FEF71CFE0B20FEF73F
:103D000009FE0F2000210022FEF714FE0F20BDE85F
:103D10008C40FEF7FFBD00BF2DE9F04387B00026C1
:103D2000304800224FF49078CDE90566016841F4EF
:103D300000210160016801F40021019101990168ED
:103D400041F480010160016801F480010191019951
:103D5000016841F400310160016801F40031019112
:103D60000199016841F4802101604FF4907100686D
:103D700000F48020019001984FF09040FEF79FF8EA
:103D8000B74848F23C2100228146FEF798F8012707
:103D90004FF40050144C0290CDE9036702AD09F5D1
:103DA00080602946A0474FF090402946CDE904663F
:103DB000CDE90287A0474FF40F7029460596CDE95B
:103DC000037602904846A04703202946CDE90376B2
:103DD00005904FF4004002904846A04707B0BDE868
:103DE000F08300BF14100240111D000870B5A8B088
:103DF00023A81421FCF760FB00265421CDE921669D
:103E0000CDE91F660AAD2846FCF756FB099601ACC2
:103E100020212046FCF750FB93486149C0E9001679
:103E20008660FEF735FA08B1FDF7E4F88E484FF0EA
:103E3000FF31FEF75AF808B1FDF7DCF88A480A218D
:103E4000FEF7C6FA08B1FDF7D5F88748002100262D
:103E5000FEF777F808B1FDF7CDF818202796CDE9E1
:103E6000236604212590804823AAFEF756F808B15E
:103E7000FDF7C0F808200026052122904FF6DF70DC
:103E8000CDE920661F9078481FAAFEF7C1FA08B155
:103E9000FDF7B0F801202021CDE90C66CDE90A66D6
:103EA0000E9005F11400FCF707FB6F4805212A4628
:103EB000FEF7D0FB08B1FDF79DF807200021002692
:103EC00021904FF6FD701F9067481FAAFEF7A0FAD9
:103ED00008B1FDF78FF8802018210B960A9005F1A4
:103EE0003400FCF7E9FA4FF4805000212A461E9670
:103EF0001D905D48FEF7AEFB08B1FDF77BF84FF073
:103F000000502025022116904FF000600F9513906D
:103F100040200A9002201D9053480AAAFEF79AFBFF
:103F200008B1FDF767F85048099509AB0021012257
:103F30000025FEF79FFA08B1FDF75CF8FF202195F8
:103F4000022120904FF4E0401F9047481FAAFEF73F
:103F50005FFA08B1FDF74EF8042014210390082001
:103F600002900020019004F10C00FCF7A5FA3E48F5
:103F70000221102223460225FEF72EFB08B1FDF791
:103F800039F83948019501AB02212022FEF724FBC4
:103F900008B1FDF72FF83448FEF7F8F928B070BDE6
:103FA000007401401FB50C480C4A0024F021029413
:103FB0008461C0E90024C0E90241FEF7F1FF08B1C5
:103FC000FDF718F804480394019401A9FEF7B8FF1F
:103FD00008B1FDF70FF81FBD4C0300200010004092
:103FE00010B50748074C00210C224FF4165300F07F
:103FF00061F818B1BDE81040FCF7FCBF10BD00BF70
:10400000980300200038014010B50748074C0021F4
:104010000C224FF4164300F04DF818B1BDE81040E3
:10402000FCF7E8BF10BD00BF1C04002000480040A2
:10403000FEE7000010B5044609484FF40071FDF793
:1040400036FF0848017881F0010202700C20002937
:10405000054908BF082020580968C1F8940110BD1F
:10406000000400481000002070020020FEE780EEEF
:10407000080A20EE090A20EE0A0A10EE100A70471C
:1040800082B220463946FFF7AFBA016841F080514D
:104090000160016801F0805100910099704701684A
:1040A00041F480210160006800F4802000900D2020
:1040B00005907047C0E90043C0E90211C0E904124D
:1040C000C0E90611C0E90811FFF7D6B9306A20F03F
:1040D00001003062306A20F00400704700EBC51028
:1040E000C0F88810204629467047206850E8020F23
:1040F000216820F0010041E80202002A704753ECD9
:10410000102B02F0E5BE3846FCF772B941F40031DD
:104110000160006800F400300090704700900720B4
:104120000590032004900120039002200290704724
:10413000706800F00C000828704700F01F01012291
:10414000C0B202FA01F1704790F8C0400223012C7E
:104150007047012084F8480084F83E0084F83F004E
:1041600084F8400084F8410084F8420084F8430059
:1041700084F8440084F8450084F8460084F8470039
:1041800084F83D00002010BD206850E8020F21682F
:1041900020F0400041E80202002A70474FF400413D
:1041A0000122FDF78CBE016841F00101016020464B
:1041B000704794F83C0001287047044690F8C1000D
:1041C00002287047016851E8001F026841F0400171
:1041D00042E80013002B7047016C41F0200101649C
:1041E00001217047016851E8001F026821F49071B5
:1041F00042E80013002B7047816841F004018160A0
:104200007047036853E8003F046843F0806344E864
:104210000035002D7047002084F83C0070470023D3
:104220000366012380F8743003685B681B027047E3
:10423000226C42F48012226401F1F4029042704731
:1042400000F580702064D1F8FC02C006704700229F
:104250002B460090204600F06DBCC2F8CC13D2F87B
:10426000CC1341F00101C2F8CC130121002280F8E7
:10427000C11070471020C4F88000002084F874003A
:10428000202070472068226C22F480122264C268C9
:10429000704790F8C0300222012B7047B0F85810D8
:1042A000FEF7BDBF5398A2905298A3905198A49046
:1042B00050988DF894027047002184F83C1010BD8E
:1042C0000023012180F8C03080F8C110704707201A
:1042D00084F8C100704763641C230022036084F8E3
:1042E0003C20704705F0180102F020021944704785
:1042F000016851E8021F026821F0400142E8021300
:10430000002B7047016851E8001F026821F480719A
:1043100042E80013002B7047206C40F6017188437F
:1043200070472068416821F490414160816870477E
:10433000206850E8020F21687047044600688168D1
:1043400001F0030101297047206850E8000F21683F
:10435000704704460068806840077047204600F0B8
:10436000BFB9002180F8C01080F8C1400024704718
:104370004FF400410022FDF7A2BD044690F83C0036
:10438000012870470022012180F8C02080F8C11068
:104390007047206850E8000F216820F0100041E8C5
:1043A0000002002A7047002084F83C002046704735
:1043B000002084F8C000704743F00203C2F8CC33F9
:1043C000D2F8CC3323F00C0319437047C0F88C1398
:1043D000204670474DF808ED2046FEF7F3FE2046D4
:1043E0005DF808EBFEF7EFBE002084F8C00084F80B
:1043F000C150704790F8C130022B704710EE100A80
:1044000002F052BF2046FCF7F7BC002180F8C01034
:10441000072180F8C11070472420A0672068016838
:1044200021F001010160204600F06ABA026802EB47
:10443000C1111A68704790F8C0500224012D7047CE
:104440003846FBF727BF016851E8021F026821F0D8
:10445000010142E80213002B7047816020460521CC
:10446000704702400020062A704790F8C1100124CE
:1044700007297047044690F83D0000287047002047
:10448000012184F8C00084F8C11070470A20FDF7AC
:104490002DBC012084F83C002046FCF7D3BC41E849
:1044A0000002002A7047086840F001000860002000
:1044B00070470125204684F8C05070472046FEF71B
:1044C000E0BD80F8C120D0E90023D2F890437047C6
:1044D0002846FCF715BD206C40F010002064606C8D
:1044E00040F0010060640120B0BD016851E8001F88
:1044F000026821F0100142E80013002B70470121EF
:1045000080F83D10002070470BF12C01FF2001F0D6
:10451000D1BD002084F874002046FEF7C9BF4FF4D7
:104520000041002270470220211D84F83D002068D0
:1045300000F08EB870477047B0B5134D0446302177
:104540002846FEF75DF828464FF40021FDF7B8FF36
:1045500028464FF40021FDF7C7FF01202074B0BDAD
:10456000B0B5094D044630212846FEF75EF82846CE
:104570004FF40021FDF7E2FF28464FF40021FDF73C
:10458000F1FF00202074B0BD7002002080B5FEF75E
:1045900071F902480121017080BD00BF03010020B4
:1045A000B0B596B06846002414210430CDE911441A
:1045B000CDE90F44FBF780FF4FF4E0100225012105
:1045C0000E9415904FF48030139510911490CDE90E
:1045D0000C100CA8FEF734FB18B1EFF3108072B684
:1045E000FEE74FF480600B940221CDE909400F20D3
:1045F000CDE9070507A8FEF75FFA18B1EFF31080C1
:1046000072B6FEE74FF4805006900020029044F20C
:10461000010000906846FEF7C3F918B1EFF310806F
:1046200072B6FEE716B0B0BD0248016841F47001F1
:104630000160704788ED00E00148FEF723BD00BF30
:104640004C0300200148FDF7ECB900BF1802002020
:1046500070B51E4A0368904217D01D4C40F4806527
:10466000A54203D14D6823F070032B43B0F1804F76
:104670000FD0A0420DD0174CA0420AD0164CA04239
:1046800007D0164CA04204D007E04C6823F070031A
:104690002343CC6823F4407323434E6923F0800303
:1046A0000C688D68334390420360C562846208D011
:1046B000084A904205D0084A904202D0074A9042E8
:1046C00001D1096901630121416170BD002C0140E4
:1046D0000004004000400140004801400044014007
:1046E00010B5416ACA0706D00268836A546824F488
:1046F0000034234353608A0706D50268C36A5468AE
:1047000024F48034234353604A0706D50268036BC0
:10471000546824F48024234353600A0706D50268B2
:10472000436B546824F4004423435360CA0606D5FF
:104730000268836B946824F48054234393608A0650
:1047400006D50268C36B946824F400542343936035
:104750004A060FD50268036C546824F480141C4385
:10476000B3F5801F546005D1436C546824F4C00431
:1047700023435360090606D50168806C4A6822F419
:1047800000221043486010BDBCB504460020C4F8A8
:104790008000FDF79BFB054620680168090707D5E7
:1047A0006FF07E404FF40011FFF751FD50B92068C3
:1047B0000068400708D56FF07E404FF48001FFF796
:1047C00046FD08B10320BCBD2020A067E0670020A3
:1047D00084F874002066BCBD406A0021A0F85A101D
:1047E000A0F85210FEF71DBDB0B5446A2068A16F55
:1047F000E56F8268120608D5212906D10020A4F8A9
:104800005200204600F06FF820688068400607D507
:10481000222D05D10020A4F85A00204600F045F8CA
:10482000D4F8800040F01000C4F880002046BDE8B5
:10483000B040FEF7F6BC8169406A202923D00021F0
:10484000A0F85A104DF808EDFFF75CFD5DF808EB95
:10485000F8D14DF808EDFFF7F6FD5DF808EBF8D15B
:104860004DF808EDFFF744FD5DF808EBF8D1202185
:10487000C167016E012906D14DF808EDFFF735FE3D
:104880005DF808EBF8D1016E012918BFFEF79ABE5A
:10489000FFF704BD406A016E012918BFFEF7A2BEF2
:1048A000B0F858104908FEF7BABC4DF808EDFFF70C
:1048B00099FC5DF808EBF8D14DF808EDFFF7C3FD62
:1048C0005DF808EBF8D1016E012906D14DF808ED2D
:1048D000FFF70BFE5DF808EBF8D12021C16700213E
:1048E000416601667047016851E8001F026821F0C7
:1048F000C00142E80013002BF5D1202181677047E9
:1049000070B5044600683C4E04F108030ECB056800
:10491000354066691943314341EA0503E1690B43B8
:104920000360436823F440531A434260A269236A38
:104930001A43836823F430631A43304B82600022A9
:1049400098420ED02E4B98420BD02E4A904207D15F
:104950002D482EA2006800F0030052F8202000E04D
:1049600010222E48B1F5004F0CD10121082A3DD864
:10497000DFE802F0053C1B3C153C3C3C1900FEF70F
:104980002DF90EE00121082A30D8DFE802F0052FCA
:10499000222F1C2F2F2F2000FEF720F915E0FEF705
:1049A0002BF910B91FE04FF4004061684A0802EB90
:1049B0004000B0FBF1F04FF6F071014015D0C0F3AC
:1049C000420008430DE0FEF717F910B90BE04FF471
:1049D0000040616800EB5100B0FBF1F080B210289C
:1049E00003D32168C860002100E001210020C4E950
:1049F0001900084670BD00BFF369FFEF0044004096
:104A00000048004000380140301002400000000023
:104A100004000000080000000200000000127A00FC
:104A2000F8B5002504461346C0F88050A0F8582079
:104A300041652220E067206F88B10A461549164E6D
:104A4000164FC0E90C152168C0E90A762431FDF73C
:104A500019F920B1FFF70EFCE0670120F8BD84F8DA
:104A60007450FFF771FC40F48070FFF718FDF8D127
:104A7000FFF75EFC40F0010041E80202002AF7D196
:104A8000FFF756FC40F0400041E80202002AF7D14F
:104A90000020F8BDE947000895480008374800089D
:104AA000816F212921D1B0F8521069B1C26C01681F
:104AB00032F8023B6FF35F230B85C264B0F85210EB
:104AC0000139A0F8521010E0016851E8001F026897
:104AD00021F0800142E80013002BF5D14DF808EDDC
:104AE000FFF770FB5DF808EBF8D17047816F212963
:104AF0001FD1B0F8521059B1C26C016812F8013BD5
:104B00000B85C264B0F852100139A0F8521010E0C1
:104B1000016851E8001F026821F0800142E800139B
:104B2000002BF5D14DF808EDFFF74CFB5DF808EBD5
:104B3000F8D170472DE9F843DDF82090044600686D
:104B4000984616460F4609F10105C1693940C91B4F
:104B5000B1FA81F14909B14226D1002DF5D0FDF716
:104B6000B5F9A0EB0800484521D8B9F1000F1ED0D7
:104B7000206801684907E8D5C1690905E5D54FF402
:104B800000610162206850E8000F216820F4D070B5
:104B9000FFF785FCF6D1FFF7A8FAFCD12020A0672B
:104BA000E06704F1800012E00020BDE8F88320688F
:104BB00050E8000F216820F4D070FFF770FCF6D1A8
:104BC000FFF793FAFCD12020A06704F17C000021BC
:104BD00084F87410202101600320BDE8F8830000F0
:104BE0000148FEF71FBB00BF98030020FEE770B529
:104BF00089B0119CADF82040109C07940F9C06943E
:104C00000D9C8DE81F000E9869464A1C00240590F3
:104C1000030C0020082C04D0155DA5400134284366
:104C2000F8E7DAB20C31002393420CD000240025BF
:104C3000082D04D04E5DAE4001353443F8E72044E2
:104C40000B310133F0E7C0B209B070BDF0B5C30756
:104C50001CBF0120F0BDC0F3470544080026082E04
:104C600006D025FA06F7FF0718BF01330136F6E72D
:104C700045055CBF0320F0BD032A0AD0012A18D1E4
:104C8000E2B20C70032A01D0012A15D10122CA70A8
:104C900012E04D1C0A78C97821B115F8016B013971
:104CA0003244F9E7E1B2D2B28A421CBF0420F0BD1F
:104CB00002E0114401F8014C0121C0F34020994366
:104CC000401A18BF01204000F0BD9DF806201620B4
:104CD0000B2112FB01007047ADF53E7DFDF7D4FDC1
:104CE000FFF75EFCFFF718F8FEF7F8FFFFF77EF816
:104CF000FEF73AFFFEF78AFFFEF7D4FFFFF770F9E1
:104D0000FFF782F9FEF7B2FFFFF74CF9DFF820BC9E
:104D1000DFF8204C4FF480704FF0000A012201268A
:104D2000ABF80A000BF109012046CBF818A0FEF7FA
:104D300031FCB9AD9FEDCA0AFFF7CAFBDFF8F80BEB
:104D40000021FCF75BF9DFF8F40B0021FCF756F9C2
:104D5000FFF79CFB01200221FEF7F0FEDFF8E00BDD
:104D6000FEF71EF92846FFF7E7FBFFF78FFBBD486C
:104D7000FFF7FEFADFF8807E4FF400313846FDF78A
:104D80009FFB38464FF40031FDF7AEFB8DF80E6205
:104D900087A801F04AF97EA89FEDB3AB9FEDB4BBA5
:104DA0009FEDB5CB9FEDB68A9FEDB7DB9FEDB8EADF
:104DB000FEEE009A01254FF000094FF00108002691
:104DC00000F117010B303B90DFF8300E3C91A2AFA1
:104DD00001685391416852918168007B5090DFF8DF
:104DE000200E519101680F9141680E9181680D91DB
:104DF000C168008A0B90DFF80C0E0C9101683591A8
:104E00004168007A3390DFF8000E349101683291E6
:104E100041683191816880892F90DFF8F00D3091E1
:104E200001682E91416880682C90DFF8E40D2D9187
:104E300001682B9141682A9181682991C168008A93
:104E40002790DFF8D00D28910168269141680089EC
:104E50002490DFF8C40D25910168239141682291C7
:104E600081682191C168008A1F90DFF8B00D209100
:104E700001681E9141681D9181681C91C168008A7A
:104E80001A90DFF89C0D1B910168199141681891E7
:104E9000816817918189807B1590DFF8880D1691C4
:104EA000016814914168139181681291C168008A68
:104EB0001090DFF8740D119101680A914168099111
:104EC00081680891C168007C0690DFF8600D079149
:104ED00001685791416856918168C0685490DFF825
:104EE000500D5591016847914168469181684591FF
:104EF000C16844910169439141694291018B807E6F
:104F00004090DFF8300D419101686C9141686B91E0
:104F1000816880896990DFF8200D6A9101685E914F
:104F200041685D9181685C91C1685B9101695A91AA
:104F30004169007E5890DFF8040D599101684F9146
:104F400041684E9181684D91C1684C9101694B91C6
:104F500041694A91018B807E4890DFF8E40C4991C9
:104F600001686791416866918168808964900FF655
:104F7000D440659141687C918168007B7A900FF6FE
:104F8000D4407B914168799181687891C168008AA9
:104F900076907791002073900120689000206D90AA
:104FA0000020399000206E900020729000203890F0
:104FB00000207D90002071903898C0B23A909BF804
:104FC0000700F0B15FEAC87003D0B9A8FFF732F864
:104FD00013E05BFA89F090F82C0010B1B9A8FFF744
:104FE00029F8BBF80E105FFA89F081428EBF09F1F3
:104FF00001094FF000098BF8089088F001088BF840
:1050000007A09BF80200002856D0DBF81C008BF8A4
:1050100002A002F049F953EC1D2B02F08CF9C8BB39
:10502000B9ADB0EE480AFFF753FA3220FCF75EFE46
:10503000DFF8180EA2907C98A3907B98A4907A98A1
:105040008DF89402FFF75FF8FFF71AF82846FFF78C
:1050500073FA0448FFF7A2F80020032500262AE08F
:105060003D4A5E4300040048000000000000F03F9D
:10507000FCA9F1D24D62703F9A9999999999F53F9F
:1050800052F8644300BF00BF9A9999999999B93F22
:1050900000000000DFF8A00DA2907998A390789806
:1050A000A4907798A5907698ADF89802FFF72BF822
:1050B000FEF7E6FF00207D909BF80000DFF8A01DC2
:1050C000B8B1DB48FFF754F914208BF800A0FCF7C7
:1050D0000DFEDFF8881D38461E22FBF7A8F9FFF702
:1050E00012F8FEF7CDFF1E20FCF700FEDFF8701D62
:1050F00002250878002800F0F1819BF80520BBF814
:10510000100081F800A0B8A9FFF7A0FD9BF80510DA
:10511000DFF8502D8BF80600032908BF8BF805A097
:1051200008B101231370032940F0DA819DF8E022D1
:1051300078B1032A0DD09DF8E132009038460FF681
:105140002851FBF7A7F8FEF7DEFFFEF799FF9DF861
:10515000E022501E032826D9152A6DD0182A37D0F0
:105160003846202A40F0CF800FF63C512822FBF72A
:105170005EF9062D10D0FFF7C7F90820ABF80E0036
:10518000FEF7C1FFFEF77CFF01200125FCF7AEFD15
:1051900001208BF808507590FEF7B5FFFEF770FF01
:1051A000002606259AE1DFE800F002B324D0FFF7DD
:1051B0006DF96C98A2906B98A3906A98A4906998E6
:1051C000ADF89402FEF79FFFFEF75AFF042585E134
:1051D0009DF8E12238460FF6A441FBF75BF8FEF795
:1051E00092FFFEF74DFFFFF78FF90820ABF80E0096
:1051F000E0E06D98C00709D09DF8E122DFF8D81CE7
:10520000FFF71EF9FEF77FFFFEF73AFF9DF8E10278
:105210007599002800F0D580DFF8482CC90700F008
:10522000EE8001210026F0EE4E8AF0EE4EEA62900A
:1052300075910521719153E19DF8E102002800F07C
:10524000F980FF2800F0DF80332840F02E8187A806
:105250007EA900F090FE002800F040817E983D99E4
:10526000CDF8D091A9464FF6FF75BDF81842DDE99B
:1052700082E2DDE9843C709672907F9821EA050510
:10528000CDE900E2CDE9023C2C446F9080983D943A
:105290006E908198DDE96E2163900BF12C00CDE9D1
:1052A00004407298639B00F0CCFE3E9DBDF818024E
:1052B0000DF5FC7EDDE9846C6FF30F0505449EE877
:1052C0001F400094CDE901E6709EDFF8644B3E95E7
:1052D000CDE903C54D46DDF8D091FFF7F6FCDFF8C8
:1052E000081C3A9AABF80E00FFF7AAF8FEF70BFF7E
:1052F000FEF7C6FE0120FCF7F9FC01206E900120AC
:105300008BF8080090E0DFF8E41BFAF7C3FF70E0C9
:105310009DF8E1020C2856D0012860D15E98B0EECD
:10532000480AA2905D98A3905C98A4905B98A59081
:105330005A98A6905998A79058988DF8A002B9A8A5
:10534000FBF7DEFD0020042547E087A800F073FE90
:105350000BF12C01D8B1FF2000F0ACFE0820ABF817
:105360000E006898C00725D04F98A2904E98A39041
:105370004D98A4904C98A5904B98A6904A98A790C9
:105380004998ADF8A00248988DF8A2020EE0CC2012
:1053900000F090FE0820ABF80E006798A290669887
:1053A000A3906598A4906498ADF89402FEF7ABFEC4
:1053B000FEF766FE0120FCF799FC01208BF808003F
:1053C0008CE000268AE0DFF8081B38461C22FBF739
:1053D0002EF8002002257D900020759009E01448E9
:1053E000FEF7C6FFDFF8EC1A38461F22FBF71FF85E
:1053F0000125FEF788FEFEF743FE14206CE0002036
:10540000002675906CE0DFF8DC1A38462A22FBF79C
:105410000EF8FEF778FEFEF733FE0120FCF766FC7F
:105420000020739000206E900020729056E000BF24
:1054300000040048DFF8A41A38461D22FAF7F7FFE7
:105440007398C00743D0DFF8981A38463B22CDE95D
:105450006F56CDF8D091FAF7EAFF3F994FF6FF70FB
:105460000DF5037C21EA0000BDF818127EAB9CE824
:1054700060104418DDE9810E0ECBCDE9000E02A8C4
:105480003F94059480E8601087A800F099FD18B952
:105490007146FEF707FF8E46DFF89449DDF8D0919C
:1054A000DDE96F560020729011E04798A29046986F
:1054B000A3904598A4904498A5904398A6904298AC
:1054C000A7904198ADF8A00240988DF8A202FEF78F
:1054D0001AFEFEF7D5FD0120FCF708FCDFF8842951
:1054E000107868B1DFF8080A82F800A0ABF805A0D0
:1054F000ADF8E0A280F800A0DFF8F80980F800A07D
:105500009BF80B0000283FF45AAD6E98CDF8D0916F
:10551000C00711D0729A013290B2B0F57A7F4FF085
:10552000000088BF524698BF012073990843C00706
:1055300004D07292084636E0739834E060994FF6D2
:10554000FF70CDE96F560DF5037C21EA0000BDF830
:1055500018127EAB9CE860104418DDE9810E0ECB7A
:10556000CDE9000E02A86094059480E8601087A839
:1055700000F026FD30B1DFF8801938463722FAF7FF
:1055800056FF03E07146FEF78DFE8E46DFF8A04819
:10559000DDF8D091DDE96F56FEF7B5FDFEF770FD41
:1055A000002072900120022D73900ED0032D25D182
:1055B0007D9A013290B2B0F5967F0FD040F2DC5167
:1055C000884218D27D92032518E07D99013188B276
:1055D000B0F5FA7F09D27D9102250FE0D148FEF7A0
:1055E000C7FE03254FF4967007E0B9A8FBF750FCFF
:1055F00001208BF80400022500207D907599652E0E
:10560000C0F0A58016F0030000F0A180719800069C
:1056100000F09D80C80700F09A8014200021FEF75A
:105620008DFA9BF80C0000284FF00000FBD0DDF84D
:10563000C4919BED07FACDE96F568BF80CA05FFA89
:1056400089F005281DD1629840B201F0B1FB9FEDB1
:10565000B60B53EC102B01F03BFC53EC1A2B01F072
:105660005DF906461FEE100A0D4601F01DFE0246CA
:105670000B463046294601F02BFC01F01DF90FEED8
:10568000900ADFF878083FEECFFA90ED010A90ED2E
:10569000009A20EE0F0AFEF7B1FE53EC1B4B224698
:1056A000639301F015FC054618EE900A0E4601F0D2
:1056B000FBFD02460B462846314601F02FF901F06A
:1056C000FBF808EE900AB0EE680A09EE0F0AFEF742
:1056D00095FE9BED051A3EEECF0A06460D4620EEDE
:1056E000010AFEF78BFE639B224601F0CBF932469E
:1056F0002B4601F0EBFC0546B9980E4601F0D4FDAF
:105700002A46334601F00AF901F0D6F800EE100AF5
:10571000B9A8FBF7F5FB83484FF40071FCF7C7FB12
:10572000A9F101095FEA096003D04846CDF8C491A8
:1057300005E00020002171901420FEF7FFF9DFF84A
:10574000F046DDF8D091DDE96F56F0EE4FEA75488E
:105750004FF4005100F58060FCF7A4FB1E20B6FB5F
:10576000F0F0C0EB0010A6EB400000287CD171984F
:10577000000679D19BF80C0000284FF00000FBD008
:10578000DBF81C008BF80CA001F08EFD53EC1C2BF9
:1057900001F0D1FD002863D16248FEF7C0FE70968B
:1057A000FCF78DFBDFF858978BF800A07EA8162138
:1057B000C8473B980121C84761994FF6FF700DF526
:1057C000FC7EDDE9846C21EA0000BDF81812CDE909
:1057D000026C45189EE81F40CDE9004E2C466195AD
:1057E0000495FFF704FA01463C98C8475F9CBDF852
:1057F00018027EAB0DF5037C9CE860100ECB6FF3B6
:105800000F040444DDE9810ECDE9000E02A80594E1
:1058100080E8601087A800F0D3FB5F9430B19BF85C
:105820000920DFF8E016FEF70BFE03E07146FEF7F5
:1058300039FD8E46DFF8F845DDF8D091709E1420D2
:10584000FCF754FADFF8141638461E22FAF7EFFD7B
:10585000FEF759FCFEF714FC1E20FCF747FA012561
:105860000A200121FEF76AF940F6B83075998642A0
:1058700068D39BF80100729E68B3DBF81C006F953B
:10588000B146DBF82050DBF8286001F00DFD709088
:105890002846639101F008FD054630460C464E4609
:1058A00001F002FD41EC100B44EC115BDFF85816DF
:1058B000709A639B6F9DDDF8D091DFF87445384690
:1058C0008DED001B8DED020BFAF7E4FCFEF71BFCDF
:1058D000FEF7D6FB7599A81F72960026B0FA80F0E5
:1058E0004009084001282DD10E48FEF741FDB9AD11
:1058F000B0EE480AFEF7ECFDDFF81016384621221C
:10590000FAF795FDFEF7FFFBFEF7BAFB1420FCF754
:10591000EDF94FF4FA70FCF7E9F90020759028468C
:105920001BE000BF00040048000000000000803FB2
:10593000F800002098030020480100209801002072
:105940004C030020012D0ED15798A2905698A39099
:105950005598A4905498A590B9A8FBF799FA0120FE
:1059600002258BF804009BF80A0001368BF80BA087
:1059700000283FF424AB39988BF80AA0C00746D022
:10598000DFF87C95CDE96F567EA81621C8479BF8B5
:1059900009103B98C84737994FF6FF700DF5FC7E0C
:1059A000DDE9846C21EA0000BDF81812CDE9026C33
:1059B00045189EE81F40CDE9004E2C4637950495CA
:1059C000FFF715F901463C98C847369CBDF8180208
:1059D0007EAB0DF5037C9CE860100ECB6FF30F04DB
:1059E0000444DDE9810ECDE9000E02A83694059449
:1059F00080E8601087A800F0E3FA002800F04D80EE
:105A00009BF80920DFF8FC14FEF71AFD49E09BF82B
:105A10000910A1F14300332800F24B80DFE810F0B9
:105A200034005D00D5016400D501D5017200D501B7
:105A30007700D501D501D501D5017C00D501D5016F
:105A4000D501D501D501D501D501D501D501D501A6
:105A5000D501D501D501D501D501D5018800D501E4
:105A60009900A400B700C200D501D501CF00D5012F
:105A7000DD0024013201D501D5014201530160014D
:105A800065016C01D5017E01DFF8B01438462C2287
:105A9000FAF7CDFC00206D90B4E17146FEF702FCF0
:105AA0008E460020DFF88843DDF8D091DDE96F569F
:105AB000A9E1A1F12B00062800F28781DFE810F0B0
:105AC000070047014C015A0185016D017B01B9981E
:105AD00001F0EAFB9FEDD40B43E1DBF8140001F089
