:020000040800F2
:100000006010002055020008EF3B0008EB350008A7
:10001000ED3B0008910E0008D147000800000000E9
:10002000000000000000000000000000D7410008B0
:10003000F70E000800000000D5410008D941000873
:100040006F0200086F0200086F0200086F020008CC
:100050006F0200086F0200086F0200086F020008BC
:100060006F0200086F0200086F020008AD0E000862
:100070006F020008B90E00086F020008C50E0008E4
:100080006F0200086F0200086F0200086F0200088C
:100090006F0200086F0200086F0200086F0200087C
:1000A0006F0200086F0200086F0200086F0200086C
:1000B0006F0200086F020008000000006F020008D5
:1000C0006F02000800000000000000006F0200083E
:1000D00000000000B94700086F020008C54700088B
:1000E0006F0200086F02000800000000000000001E
:1000F0000000000000000000000000000000000000
:1001000000000000000000000000000000000000EF
:1001100000000000000000006F0200086F020008ED
:1001200000000000000000000000000000000000CF
:1001300000000000000000000000000000000000BF
:10014000950E00086F020008000000006F02000812
:10015000B5320008413300086F0200086F02000842
:100160006F0200086F02000800000000000000009D
:10017000000000000000000000000000000000007F
:10018000000000006F02000800F002F800F052F8D2
:100190000AA090E8000C82448344AAF10107DA45E2
:1001A00001D100F047F8AFF2090EBAE80F0013F0E2
:1001B000010F18BFFB1A43F0010318471074000029
:1001C00030740000103A24BF78C878C1FAD85207BA
:1001D00024BF30C830C144BF04680C6070470000C1
:1001E0000023002400250026103A28BF78C1FBD840
:1001F000520728BF30C148BF0B607047662906F020
:10020000CA87642900F0B880752900F0B580632999
:1002100000F00B84002070471FB506F0AAFF00F025
:1002200043FC04000020002106F0E2F9E0601FBD5D
:1002300010B510BD00F038FD1146FFF7EDFF04F0DA
:100240005BFB00F056FD03B4FFF7F2FF03BC00F0C8
:1002500099FD00000948804709480047FEE7FEE78E
:10026000FEE7FEE7FEE7FEE7FEE7FEE7FEE7FEE766
:1002700004480549054A064B7047000075420008CE
:1002800089010008600A002060100020600C002036
:10029000600C00200FB41CB5074B06AA7B446946CE
:1002A0000090059800F09FFB0020694600F0AEFB2F
:1002B0001CBC5DF814FB00006D0700002DE9F04147
:1002C0000E460446002020622046E168884730B38D
:1002D000252805D0D4E901219047206A401CF2E787
:1002E000E168204600278847050018D0A5F14100A5
:1002F000192802D820354FF4006732462946204697
:100300002760FFF77BFF40B1012804D0F61D26F0DF
:1003100007060836D8E7361DD6E72846DAE7206A0A
:10032000BDE8F08170B50C460546012A05D0287855
:10033000800600D5EA69002302E0012305E05B1C8A
:10034000934202D2E05C0028F9D1A869E618C01AED
:10035000A861286A184428622846AFF3008004E0A8
:10036000D5E9012114F8010B9047B442F8D328468F
:10037000AFF3008070BD00002DE9F0410646002477
:1003800010687529314616A510D0AFF300800028FB
:1003900002DA404213A507E031688A0701D512A5A9
:1003A00002E0490704D511A5012401E0AFF3008064
:1003B00000210A2206F1240709E0B0FBF2FCB0FBA1
:1003C000F2F302FB1C00303078541846491C002818
:1003D000F3D123462A463046BDE8F04100F096B8F6
:1003E000000000002D0000002B0000002000000095
:1003F00010B5431C02E010F8011B71B18107FAD15E
:100400004FF0013202C88C1A8C4314EAC211F9D0A1
:10041000C01A0A0603D0C01E10BDC01A10BD0A04BF
:1004200001D0801E10BD0902FCD0401E10BD032A61
:1004300040F2308010F0030C00F0158011F8013B01
:10044000BCF1020F624498BF11F801CB00F8013BE8
:1004500038BF11F8013BA2F1040298BF00F801CBAC
:1004600038BF00F8013B11F0030300F0EA82083ABC
:10047000C0F0088051F8043B083A51F804CBA0E8DA
:100480000810F5E7121D5CBF51F8043B40F8043B2F
:10049000AFF30080D20724BF11F8013B11F801CB64
:1004A00048BF11F8012B24BF00F8013B00F801CB35
:1004B00048BF00F8012B70474FF0000200B513460B
:1004C00094469646203922BFA0E80C50A0E80C5074
:1004D000B1F12001BFF4F7AF090728BFA0E80C5025
:1004E00048BF0CC05DF804EB890028BF40F8042B1E
:1004F00008BF704748BF20F8022B11F0804F18BF8B
:1005000000F8012B70477047704770472DE9F0479E
:100510000D4699469246044600F124080168880673
:1005200004D5E06921F01001216000E00120A8421B
:1005300001DD471B00E00027A1697A1902EB0900E1
:10054000081AA0612078C00602D42046AFF30080CC
:10055000002608E0D4E901211AF806009047206A35
:10056000401C761C20624E45F4DB2078C0060AD57C
:100570002046AFF3008006E0D4E901213020904707
:10058000206A401C2062381EA7F10107F4DC07E056
:10059000D4E9012118F805009047206A401C206228
:1005A000281EA5F10105F3DC2046AFF3008020787A
:1005B000000602D50220BDE8F0870120FBE72DE907
:1005C000FF4F0C461E464FF0FF378BB0D2E90001BB
:1005D000DDF860800A908A46C1F30A5505B93D46A8
:1005E000002108464FF00000BAF1000F00F440006F
:1005F00005DA00EB80004FF4400101EA50004FEAB9
:100600009059B9F1010F00DDB9460A9850EA4A0045
:100610000ED044F61050A5F2FF3545432F14B8F123
:10062000000F1ED07542291E1EDDC9F100021CE01C
:10063000B8F1010F4FF0000001D0302103E0F24388
:1006400005E02154401CB042FBDB30460022002173
:1006500021540B99C1F80880C1E900200FB0BDE812
:10066000F08FBD1B6D1CDEE74A4600DA694206A822
:1006700000F0A4FA06AB93E8070003AB83E8070099
:1006800050460A9905F0D4FB8DE80700A0F500500C
:100690001F3800900398002D0ADD42F21F014A46E0
:1006A0000844002303A90390684605F03DFE09E0D5
:1006B000A0F500504A461F38002303A9039068465E
:1006C00005F047FE8DE807000004000C03D04FF052
:1006D000FF30410800E01046B8F1000F03D00022BF
:1006E000009215461EE0751E05D400F0E1F9303287
:1006F00062556D1EF9D5B3460122084302D000228F
:100700007F1C04E02078302801D100227F1E002ABF
:10071000099784D01DE0112D07DA00F0C9F93032B5
:1007200062556D1C50EA0102F5D1084302D00098D1
:10073000C8B10EE00021681E05E0235C625C6354D2
:100740002254401E491C8142F7DBAB46A81B401EC9
:100750000990002004F80B000B98099AC0F8088053
:10076000C0E9002B7AE711264FF0000857E72DE982
:10077000F04F88460446D21D22F0070191B0D1E91E
:100780000001CDE90A0105F01BFF02460B98C00FDE
:1007900001D02D2007E02068810701D52B2002E041
:1007A000202101EAC000032A099001D0072A05DBB5
:1007B00003464146204600F0C1F90BE1207880064F
:1007C00001D5E06900E00620B8F1650F814606D04A
:1007D000B8F1660F18D0B8F1670F70D131E0002082
:1007E000B9F1110F009001DB112301E009F10103C0
:1007F0000AAA01A90CA8FFF7E2FEDDE90C700026A9
:1008000009F10105834647E001204B4600904FF077
:1008100000470AAA01A90CA8FFF7D1FEDDE90DB037
:100820000C995D46002610B909F101000D18B9EBCD
:10083000050003D4C0F1FF3609F10105A5EB09005D
:100840002BE0B9F1010F01DA4FF001090020B9F1F5
:10085000110F0090484601DD112300E003460AAA6B
:1008600001A90CA8FFF7ABFEDDE90C704D46002690
:100870008346207800070AD4AB4500DA5D4601A81C
:10088000012D04DD411911F8011C302907D04F4515
:1008900002DA17F1040F04DA012082460FE06D1E20
:1008A000EEE7002F02DCED1B3E4403E0781CA8427B
:1008B00000DD7D1CB81B00F1010A4FF000472078D5
:1008C000000703D4AA4501DB4FF0FF3A0021B7F13E
:1008D000004F0DF143088DF8431024D002202B2344
:1008E000002F01DA7F422D230A21021EA0F1010010
:1008F00000DC5FB197FBF1FC97FBF1F201FB1C7C84
:1009000017460CF1300C08F801CDEEE7A8F1010014
:1009100003702188090501D5452100E06521A0F17A
:10092000010800F8011C09980FA9A1EB0807FF1D99
:1009300000B10120411901EBEA70A1693844081A9D
:10094000401EA0612078C00602D42046AFF300808C
:10095000099828B1D4E901219047206A401C2062FF
:100960002078C00622D52046AFF300801EE0002E7E
:1009700004DBB34502DD01A8805D00E03020D4E94E
:1009800001219047206A401C2062761CAAF10100D8
:100990005FEA000A0AD100F087F8C0680168405C8D
:1009A000D4E901219047206A401C2062281EA5F14D
:1009B0000105DCDC07E0D4E9012118F8010B9047C0
:1009C000206A401C2062381EA7F10107F3DC204694
:1009D000AFF30080032011B041E6000001694A1C1A
:1009E00002610878704700B58FB0CDE90131002170
:1009F000059105497944CDE9031011466846FFF792
:100A00005DFC0FB000BD0000E5FFFFFF0A6802F8C3
:100A1000010B0A60704710B5436913B1AFF3008052
:100A200001E0FFF77FFC012010BD127800F12401E6
:100A30000A7000224A700122EDE711684FF0FF3280
:100A4000E9E710B5203AC0F00B80B1E81850A0E8F3
:100A50001850B1E81850A0E81850203ABFF4F5AF8C
:100A60005FEA027C24BFB1E81850A0E8185044BFE8
:100A700018C918C0BDE810405FEA827C24BF51F855
:100A8000043B40F8043B08BF7047D20728BF31F849
:100A9000023B48BF11F8012B28BF20F8023B48BF9A
:100AA00000F8012B70470000004870473800002014
:100AB00030B5B0F10A0271F100034FEA900E4EEA30
:100AC000817EB0EB0E0061EB91014FEA101E4EEA01
:100AD000017E10EB0E0041EB11114FEA102E4EEA91
:100AE000016E10EB0E0041EB11214FEA104E4EEA61
:100AF000014E10EB0E0041EB1141401841F1000195
:100B00004FEAD00040EA41704FEAD1014FEA810438
:100B100044EA907410EB800544EB01046D1944EB3A
:100B20000404521BA3414FF0000348BF0A3200D512
:100B300030BD401C41F1000130BD00002DE9F04105
:100B40001F46044603260168072A01F4006004DBFF
:100B500008B116A505E016A503E008B115A500E04B
:100B600015A521F010002060A069C01EA0610FB182
:100B7000401EA0612046AFF300804FB1D4E90121AF
:100B800038469047206A401C2062C01C206206E064
:100B9000206AFAE7D4E9012115F8010B9047761E87
:100BA000F8D22046AFF30080BDE8F0814E414E0000
:100BB0006E616E00494E4600696E66002DE9F04791
:100BC000814616468AB0354878440DC88DE80D0038
:100BD00032487844801C03AC0DC884E80D0041F60F
:100BE0009B300844372190FBF1F290FBF1F5A5F121
:100BF000800501FB12041B3C02D56442012000E089
:100C00000020DFF898A080460027FA44AAF1BE0A27
:100C10000EE0E0070AD03246684607EB47010123A1
:100C20000AEB810105F095FB8DE8070064107F1C3D
:100C3000002CEED1194F7F44AE3F19E0E80715D0E4
:100C400007EB04100DF1180A90E80E008AE80E0078
:100C5000C068F04201D1981908903246012306A9D4
:100C600003A805F076FB03AB83E807006D10641C56
:100C7000002DE3D14FF0010332466946B8F1000F71
:100C800003A802D005F050FB01E005F062FBC9E9C2
:100C90000001C9F808200AB0BDE8F0874C660000E2
:100CA00000487047180000207546FFF7F9FFAE4670
:100CB00005006946534620F00700854618B020B568
:100CC000FFF7D6FABDE820404FF000064FF00007CE
:100CD0004FF000084FF0000BAC46ACE8C009ACE8A0
:100CE000C009ACE8C009ACE8C00921F007018D4695
:100CF000704710B50446AFF300802046BDE81040B1
:100D0000FFF7A1BA0000000030B44FF0013C50F8EA
:100D1000042B51F8043BCCFA52F4D51A20D1FCB97B
:100D200050F8042B51F8043BCCFA52F4D51A17D1E1
:100D3000B4B950F8042B51F8043BCCFA52F4D51A4C
:100D40000ED16CB950F8042B51F8043BCCFA52F494
:100D5000D51A05D1002CDAD030BC4FF00000704716
:100D600029BAB1FA81F111F01801D1F120008440C3
:100D7000F2D1CA40CB4012F0FF0213F0FF0330BCA7
:100D8000D01A704701491820ABBEFEE726000200CA
:100D900070470146406A026C12F0500F03D0806B1E
:100DA000026B084610470168026C42F4007202644C
:100DB000C96811F4406F01D000F03ABB417E0029B0
:100DC000FAD1016C21F480710164016CC904F3D47F
:100DD000016C41F00101016400F02ABB406A016C22
:100DE00041F040010164416C41F00401416400F0B4
:100DF00029BB406A00F021BBB0B503F021F902D154
:100E00000168C90701D10020B0BD816801F00D0162
:100E1000012915D1816841F002018160032101603F
:100E200001F028F8054620688068C007EBD001F083
:100E300021F8401B0328F6D320688068C007F2D051
:100E400003F0A2B9B0B503F0FBF802D10168C907FD
:100E50001AD181680D4A114201D003F095B9816819
:100E600041F00101816001F005F805462068006845
:100E7000C00709D100F0FEFF401B0328F6D320680D
:100E80000068C007F2D1E8E70020B0BD3F00008055
:100E9000FEE7000080B5034800F064FC0248012131
:100EA000017080BDA402002000020020014800F073
:100EB00043BE00BFA8000020014800F03DBE00BFB7
:100EC0002C030020014800F037BE00BFE8020020DC
:100ED000F0B5D0E90045D0E90F60012707FA00F02E
:100EE000102D70600846636008BF1046A06008BF00
:100EF0000A46E260F0BD7047EFF3108072B6FEE77D
:100F0000F8B503F0B5F801D1022538E001272046F5
:100F10000E4684F83C70FFF76FFF054668BB2764F8
:100F2000012E2068816821F08041816003D18168B1
:100F300041F080418160816841F00041816000F0B2
:100F400099FF064620688068B0F1FF3F0EDC00F094
:100F500091FF801B0B28F5D320688068B0F1FF3F1C
:100F6000F0DC012510206FF0120102E001206FF08B
:100F70000301226C11400843206402F09FFF2846C1
:100F8000F8BD0000F0B504684FF0A043324AB4F158
:100F9000A04F08BF02F1F80390F83C50012D01D199
:100FA000022156E0A5686D0733D41546B4F1A04F71
:100FB00008BF05F580752E6876072AD4D1F800C0E1
:100FC000D2F8007327F46047BCF1000F24D090F8EA
:100FD00030E04E6846EA4E363E43C2F80063A668EB
:100FE00006F00306012E02D12468E4072DD12C68F7
:100FF00004F00304012C02D11B68DB0725D1D2F8D1
:10100000003340F61F748968A343194341EA0C0179
:1010100019E002F023FF19E0C2F80073A16801F0A3
:101020000301012902D12168C9070ED1296801F005
:101030000301012902D11968C90706D1D2F80013AA
:1010400040F61F739943C2F800130021002280F874
:101050003C200846F0BD00BF080000502DE9F041DB
:1010600094B0044668460E464C2115460430FFF7FE
:1010700023FA02F0DDFE12D0012084F83C00206843
:10108000816849070BD4B0F1A04F0DD00020012793
:1010900084F83C00206C40F02000206400E002272F
:1010A000384614B0BDE8F0811D48804600902046C7
:1010B000FFF7C8FE074620B96846FFF7C3FE07469C
:1010C00010B102F0FBFEEBE72168206C154A1040DE
:1010D00000F580702064C868800104D5206C01226E
:1010E00062F30D30206400271C20114ADFF838C05D
:1010F0000E4B6764086084F83C70A06B00F1280E0A
:101100008EE80C102B464A6842F010024A6008F53F
:101110000371324600F088FD206802F0B4FEBFE79C
:1011200000010050FEF0EFFFDD0D0008F30D000898
:10113000930D0008F8B50022009290F83C20012A97
:1011400001D102216DE1012280F83C200268936800
:101150005B0700F109814C68042C0FD804EB4404B0
:10116000D1F800C01F2664000CFA04F506FA04F456
:10117000166B26EA04042C43146336E0092C12D8BB
:1011800004EB44036FF01D04D1F800C01F2604EBEC
:1011900043040CFA04F506FA04F4566B26EA040438
:1011A0002C43546321E004EB44035B000E2C0ED867
:1011B000D1F800C0A3F13C041F260CFA04F506FA8E
:1011C00004F4966B26EA04042C4394630DE0D1F8F2
:1011D00000C0A3F15A041F260CFA04F506FA04F421
:1011E000D66B26EA04042C43D463946814F00C0FE5
:1011F00026D0936803F00303012B03D11368DB07A8
:1012000040F00B810123894C03FA0CF5CB68012BCC
:1012100042D1D2F8B0302B430CEB4C05BCF10A0F95
:10122000C2F8B0304ED38968A5F11B030725994059
:1012300005FA03F3956925EA03031943916130E048
:101240000CEB4C04BCF1090F4FF0140588BF1E3C99
:1012500088BF1825072356598F68A340A74026EA60
:1012600003033B435351D4680B695D1E032D00F209
:101270008980062303EA94034C699C40DFE805F06B
:1012800002A9B3BD136E684D2B4043EA8C63234320
:1012900043F000431366ACE7D2F8B010A943C2F89C
:1012A000B010BCF1120F1ED0BCF1110F1FD0BCF159
:1012B000100F40F0B280D4F80013090200F1AD80A5
:1012C00001211BE0382356698968AB40033526EAC3
:1012D0000303A9401943BCF1110F516107D0BCF1C0
:1012E000120F40F09A80D4F80013490202E0D4F8BB
:1012F0000013C9014FF0000100F190804FF0A045AC
:10130000B2F1A04F08BF04F1F805936803F003039E
:10131000012B02D11368DB0726D12346B2F1A04F7F
:1013200008BF03F580731B6803F00303012B02D190
:101330002B68DB0718D1D1B1B2F1A04F6DD1D4F831
:101340000013B04A41F40001C4F80013AC49096825
:10135000B1FBF2F101EB81014900009100990029F4
:101360005BD000990139F8E702F078FD56E0BCF156
:10137000110F4CD1B2F1A04F4FD1D4F8001341F06E
:10138000807148E0136E4FEA8C6403F0F843A34287
:1013900003D1136E23F000431366536E03F0F8433A
:1013A000A34203D1536E23F000435366936E03F0C0
:1013B000F843A34203D1936E23F000439366D36EA8
:1013C00003F0F843A3427FF414AFD36E23F000433D
:1013D0001BE0536E144D2B4043EA8C63234343F0D0
:1013E0000043536605E7936E0F4D2B4043EA8C6331
:1013F000234343F000439366FBE6D36E0A4D2B4034
:1014000043EA8C63234343F00043D366F1E6D4F808
:10141000001341F48001C4F800130021002280F879
:101420003C200846F8BD00BF00F0FF030800005054
:1014300010B1012002F0DCB8704710B1002002F0BA
:10144000D7B8704770470000BCB504460020019033
:10145000B4B3206CC00635D4206C0025A8BB204650
:101460006564C4E9125584F83C5000F0D3F8206854
:101470008068C00029D402F030FE0546206C00F0E0
:101480001000284321D12068216C41F202129143BF
:1014900002312164816821F040518160816841F00E
:1014A00080518160564857490068B0FBF1F000EB6D
:1014B000800040000190019830B101980138F9E7AF
:1014C0000120BCBD002512E0002520688168C9000C
:1014D00002D5806880000AD5206C012540F01000FC
:1014E00020F002002064606C40F001006064206C19
:1014F00000F0100028434AD120688168490746D48B
:10150000216C4FF0A04221F48171023121643E49E7
:10151000B0F1A04F08BF01F1F802836803F00303A4
:10152000012B02D10368DB0715D10B46B0F1A04FA8
:1015300008BF03F580731B6803F00303012B02D17E
:101540001268D20707D16268D1F8003323F4403320
:101550001A43C1F80023627E616B530303F5805385
:10156000012908BF5303D4E902152943194394F80C
:101570002030012B15D17AB1226C42F0200222F0EA
:1015800002022264626C42F00102626409E00120FE
:1015900010216FF012022EE0626A1C4B03EB4242F4
:1015A0001143A26A012A02D0E36A194311438268F7
:1015B00012F00C0F0BD1C26844F202039A43C260CE
:1015C000227E94F83030920342EA43021143C2680B
:1015D0000F4B1A401143C160016B226921F00F01CA
:1015E000012A02D1E269013A11430163002001217D
:1015F0006FF003026064236C1A4011432164BCBD88
:101600000C00002040420F00080000500000FFFFC7
:1016100007C0F0FF70B586B0044601A81421FEF79C
:101620004BFF20682749884232D0B0F1A04F46D105
:10163000254D2968481C2860A14809B902F02BFBF8
:101640000168002602F0B3FB0320039602900620F7
:101650000190009801A94FF0904000F02BFB1B492E
:1016600028464FF40072802340F8041F4FF40061B5
:10167000C0E90166C0E90332C0E90516C66100F0A1
:10168000A1FA08B1FFF738FC281DAC62A06316E090
:101690000D4801684A1C0260ED4809B902F0FBFAE6
:1016A000016802F084FB00200390032002901020C8
:1016B0000190009801A94FF0904000F0FBFA06B0AD
:1016C00070BD00BF00010050A400002008000240CF
:1016D00010B502F0BCFC02D402F0AAFB01D102203A
:1016E00010BD02F031FD08B102F070BC02F094FCB4
:1016F0001B4902F0F4FB0AD02068B0F1A04F06D0DD
:1017000002F0E0FB0CD1084650F8F42B01E002F0A7
:1017100004FC920104D5226C012363F30D32226490
:10172000226C0023D20444BF636C23F0060302F052
:1017300066FCD1F8FC22D2060ED0D1F8FC2202F0D1
:101740001F02052A08D0D1F8FC1201F01F01092957
:1017500018BFB0F1A04F01D102F095FB002010BDE1
:101760000C000050B0B5554A0468012102F108038D
:101770009C420D4B08BF4FF08041944208BF4FF48C
:101780008001CCB202F57D721D46002C08BF1546C3
:101790002D68294208BFB0BD002C08BF1346196050
:1017A000BDE8B04000F0E4B834040140FEB50028C4
:1017B00055D0044690F82900C00650D42948016845
:1017C00041F001010160006800F001000290029800
:1017D000204600F04DF894F8290010B9002084F854
:1017E00028006268602A05D1206834491E4A884270
:1017F00008BF60220020626004F1080601902168A1
:1018000068CE0F680197194FBC46019F07EA0C0785
:101810003A430192019A1A430192A269019B23F46F
:1018200040231A430192AA0A019B62F38D2301937C
:10183000019A22F4004232430192019A63691A43E9
:101840000192019AE3691A430192019A236A1A43A9
:101850000192019A0A60012184F82910FEBD01203D
:10186000FEBD00BF18100240700040008FFFBFFF98
:10187000FEB50068114A0021CDE9041190421BD148
:101880007348026842F400320260006800F40030DD
:10189000009003200391029080200190009801A9FC
:1018A0004FF0904000F006FA40200021002200F0A6
:1018B000ADFF402000F09AFF06B080BD200001403F
:1018C0001410024070B508B390F82910C9061DD451
:1018D00090F82910012919D1456A0121AC0716D0C9
:1018E000214B0268A3F57676B242A3F5787608BF5D
:1018F0004FF08041B24208BF4FF48001CEB2ED07F5
:1019000007D1CD4356B99E68354005E00121084610
:1019100070BD36B99D680D439D6005E09E6A3540F7
:1019200001E09D6A0D439D62104D01F00106002CFF
:1019300004D4CC435EB9DD682C4002E056B9DC68C3
:101940000C43DC6059611C682143196009E02E6872
:10195000344001E02C680C432C60A9601C6A2143D0
:10196000196202F0C0F9D2E7000401402C040140E2
:1019700070470000B0B544790223012C26D00371D2
:10198000134C03685C40144340F6FE7404FA02F4FE
:101990006FEA040404BF4FF20104CFF6FF741D6820
:1019A00004EA05044FF0080508BF04254D590968ED
:1019B0002943914021431960C02191401A6822EACD
:1019C0000101196000230121437101711846B0BD66
:1019D0000074004078B110B50446007920B90020A9
:1019E0006071204600F00AF80220012120710020D9
:1019F0002061217110BD012070470000FEB5006814
:101A0000124A0021CDE9041190421CD1104882688D
:101A100042F080628260826802F080620092009AE6
:101A2000026842F400320260006800F40030009066
:101A300003200391029040200190009801A94FF0EB
:101A4000904000F037F906B080BD00BF009800401C
:101A50001410024018B5002400940068009000980B
:101A6000104409B1143000E0083000900098036081
:101A7000002018BD10B543790222012B1CD0027141
:101A8000012202FA01F30268146823431360136809
:101A900031B103F47011B1F5701F09D1022104E0D6
:101AA00003F03C013C2903D10121536819435160E3
:101AB0000022012142710171104610BD10B590F84D
:101AC0002110022911D10168D0E90F230C6824F0FC
:101AD0000E040C600C6824F001040C60012180F8F5
:101AE000211099405160002102E00421816301210D
:101AF000002280F82020084610BDB0B590F82110D3
:101B0000022915D10268416BD0E90F34156825F020
:101B10000E051560156825F0010515604FF48072FB
:101B200002840122A2405A6001B188470020B0BD62
:101B3000042181630120B0BDF0B5D0E90F13026824
:101B400004240E6804FA03F51468354201D06707CF
:101B500019D402259D40354201D0A7071DD426FA8D
:101B600003F52D072CD524072AD5146824F00E047C
:101B70001460012202FA03F34B604FF48071018478
:101B80008263016B18E013689B0603D4136823F08B
:101B9000040313604D60C16A0EE013689B0606D40F
:101BA000012380F82130136823F00A031360002218
:101BB00080F820204D60816A11B1BDE8F0400847EF
:101BC000F0BD000048B32DE9F041D0E9001E00F15E
:101BD000100CD0E9028443F6F0739CE8E0100A6828
:101BE0009A434FF4807342EA0E0242EA080222430B
:101BF0002A4332433A4342EA0C020A600384094B07
:101C0000074A19441423B1FBF3F18900C0E90F21FD
:101C100000218163BDE8F04100E0012108467047E2
:101C200000000240F8FFFDBFB0B5044690F8200068
:101C300001281DD0012084F8200094F821000128FB
:101C400013D10020A063022084F8210020680568D9
:101C500025F0010505602046FFF73AF92068E26AA1
:101C600001683AB141F00E010AE0002084F820003A
:101C70000220B0BD41F00A010160016821F00401B9
:101C80000160016841F0010101600020B0BD000069
:101C9000B0B5044600F0EEF805460548611C007832
:101CA00018BF044400F0E6F8401BA042FAD3B0BDD0
:101CB000040000202DE9FC4F5E4A05234FF0000B85
:101CC0004FF0000E904208BF032300930127002528
:101CD0000B6833FA05F408BFBDE8FC8F07FA05F876
:101CE00013EA080A00F0A08003224C6802FA0EF3FF
:101CF0006FEA030904F00303A3F1010CBCF1010F27
:101D000013D8826802EA090CCA6802FA0EF242EAA3
:101D10000C028260C4F3001202FA05FC426822EA57
:101D2000080242EA0C02426003E0032B01D10323C4
:101D30001DE0C2688E6802EA090206FA0EF6324316
:101D4000022BC26013D16FF003040BF01C020F23AF
:101D500004EA550493400444266A26EA03030E6904
:101D600006FA02F21A4322624C6804F0030303FAF3
:101D70000EF2036803EA09031A4314F4403F0260B9
:101D800052D02F4BB0F1904F1A6842F001021A6006
:101D90001A68294B02F00102A3F57E780192019A9C
:101DA00025F0030258F802C008D0264A904207D016
:101DB000254A009E904208BF022602E0002600E06D
:101DC00001260BF00C020F231B4F03FA02F406FA54
:101DD00002F2AB082CEA0404224348F82320BA6834
:101DE0004C6842EA0A03E60258BF22EA0A03134A91
:101DF000BB60A6029446126842EA0A0358BF22EA70
:101E00000A03CCF80030A6037A6842EA0A0358BFF6
:101E100022EA0A037B60E4033A6842EA0A0358BFF5
:101E200022EA0A033B6001270BF1040B0EF1020EBC
:101E300001354DE7000C0048000401400C0401404E
:101E400018100240000400480008004800690840DB
:101E500018BF01207047426902EA0103914341EA39
:101E60000341816170471823002A08BF2823C1500D
:101E70007047000001480068704700BF580A002002
:101E8000704770477047704770477047704770479A
:101E9000704710B502F048F810D080F8C120012238
:101EA00080F8C02002684C1CD2F8CC3302D002F07B
:101EB000F9F801E023F0020102F01EF8104610BD0F
:101EC0007047B0B501F0B8FF04BF0220B0BD94F870
:101ED000C0300220012B07D084F8C10002F045F980
:101EE00001F0ACFA02F0ECF8B0BD90F8C120022A83
:101EF00001D1022216E04DF808ED02F015F85DF868
:101F000008EB0FD080F8C120890F0268D2F8B833EF
:101F100061F39F730121C2F8B833002280F8C0201A
:101F200080F8C1101046704770477047704770477F
:101F30007047022A09D0012A1CBF4FF0FF307047BA
:101F4000006800EBC110B03003E0006800EBC11086
:101F5000B430006870472DE9F0410446052947D0A8
:101F60000D46FF2940F099802068D0F88863D0F8AA
:101F70009053F10706D0E90704D0012102F09CF844
:101F8000FFF7D2FFB00707D5A80705D520680221C3
:101F900002F092F8FFF7C9FF700707D5680705D56B
:101FA0002068042102F088F8FFF7C0FF300707D54A
:101FB000280705D52068082102F07EF8FFF7B7FF53
:101FC000F00607D5E80605D52068102102F074F860
:101FD000FFF7AEFFB00640F1F480A80640F1F180B3
:101FE0002068202102F068F8BDE8F04100F0CDB98A
:101FF0002068D0F88853D0F890734668D0F80C80E9
:10200000E9030DD5F9030BD54FF48031C0F88C13DB
:1020100002F044F8012084F8C1002046FFF738FFA1
:10202000A80308D5B80306D520684FF4003102F0A4
:1020300043F8FFF725FFF00718BF5FEAC87040F0CC
:10204000CB80B00748BF5FEA887000F1CC80700792
:1020500048BF5FEA487000F1CD80300748BF5FEAB3
:10206000087000F1CE80F00648BF5FEAC86000F15A
:10207000CF80B00648BF5FEA886000F1D08070066C
:1020800048BF5FEA486040F19C802068402102F030
:102090004FF8BDE8F04100F075B9206800EBC510BD
:1020A000D0F88470D0F88C60F90708D0F10706D01A
:1020B0000121C0F8881020462946FFF7E4FEB80742
:1020C00007D5B00705D52068022101F015FEFFF7FE
:1020D000DBFE780707D5700705D52068042101F0DD
:1020E0000BFEFFF7D2FE380707D5300705D520686D
:1020F000082101F001FEFFF7C9FEF80607D5F0063A
:1021000005D52068102101F0F7FD00F03CF97806B4
:1021100007D5700605D52068402101F0EDFD00F0DF
:1021200031F9380607D5300605D52068802101F041
:10213000E3FDFFF7A6FEF80508D5F00506D52068F3
:102140004FF4807101F0D8FDFFF79CFEB80508D56B
:10215000B00506D520684FF4007101F0CDFD00F008
:10216000F2F8780508D5700506D520684FF480612F
:1021700001F0C2FD00F0E6F8380508D5300506D5B7
:1021800020684FF4006101F0B7FD00F0DEF8F804BC
:1021900008D5F00406D520684FF4805101F0ACFD5D
:1021A00000F0D2F8B80408D5B00406D520684FF482
:1021B000005101F0A1FDFFF76AFE780401D570041B
:1021C00001D4BDE8F08120684FF4804101F094FD16
:1021D000BDE8F041FFF774BE2068012101F0A8FFBF
:1021E000FFF751FE2DE72068022101F0A1FFFFF764
:1021F0004BFE2CE72068042101F09AFFFFF745FE13
:102200002BE72068082101F093FFFFF73FFE2AE744
:102210002068102101F08CFF00F0B5F829E7206854
:1022200020218160204600F0AFF828E7002846D042
:102230007CB504460220182184F8C10004F1C400D2
:10224000FEF73AF9207AC00719D020683A49884247
:1022500009D11C490A6842F000520A60096801F07D
:102260000051019101990168D4E9042321F47041DE
:1022700002F44042114403F44052114401602046EC
:1022800000F022F8207A800706D52068E16802680D
:10229000090A61F30922026000250026012084F862
:1022A000C05084F8C100A82E04BF00207CBDA01936
:1022B000142105631830FEF7FFF81C36F3E7012000
:1022C000704700BF18100240FEB500681A498842E6
:1022D0002FD11A48416841F000514160416801F036
:1022E000005101910199016841F480210160006869
:1022F00000F4802000900D2005900020CDE903001F
:102300000220029040200190009801A90C48FFF79C
:10231000D1FC44200021002200F078FA442000F093
:1023200065FA45200021002200F070FA452000F0F7
:102330005DFA06B080BD00BF007401401410024079
:10234000000400487047704770477047F8B50D4665
:102350000446FFF78FFD06466F1C2068D0F88803FF
:10236000C0030CD4002FF8D0FFF784FD801BA842D7
:1023700001D8002DF1D101F034FE0320F8BD01F0A9
:10238000EDFEF8BD704770477047704770B590F824
:10239000C1400223022C29D080F8C13005290368EE
:1023A0000DD1196892E87000D26826F0180621F065
:1023B0001F013143114319605C619D6112E003EB21
:1023C000C111D1F8803092E87000D26826F018066A
:1023D00023F01F0333431A43C1F88020C1F894400F
:1023E000C1F898500121002380F8C110184670BD33
:1023F000B0B590F8C140022C01D102241CE001F0DC
:1024000085FE19D080F8C1400124022A80F8C0401E
:1024100006D0012A09D101F074FEC1F8DC2006E0E3
:1024200001F06FFEC1F8E02001E001F059FE01F07B
:1024300083FE01D001F010FE2046B0BD4DF808ED3E
:1024400001F072FD5DF808EB09D080F8C120026848
:10245000136819431160734601F00FFE9E46104643
:1024600070470000F0B501F05FFD23D001F082FE5F
:102470002343C2F89033CB0304D5D0F8AC30D468F2
:102480002343D360284D00F120032324C32C0CD018
:102490002E680E4205D052F824601F683E4342F871
:1024A00024601C3304352034F0E7136819431160AD
:1024B00001F0E3FD1046F0BDF8B540F27F12009246
:1024C000022290F8C030012B2CD001F053FE24EAF8
:1024D0000303C2F89033CB0305D5D0F8AC30D468F1
:1024E00024EA0303D360104D00F120032324C32CFE
:1024F0000CD02E680E4205D052F824601F68BE43EF
:1025000042F824601C3304352034F0E7009B013B83
:102510000093009B002BF9D1136823EA010111609D
:1025200001F0ABFD1046F8BD487200082DE9F04FF0
:102530008EB001F0CBFD01D10223DFE001F054FCAD
:1025400000F0DC8080F8C13001236E4DD0F80080AF
:10255000052980F8C03028D1D8F80040D2E90567B5
:10256000D2E9073C2C40203523F06E4335402C4304
:102570006E4D3D402C436E4D23432CF06844234365
:10258000546A2343946A23F0604305EA8404156B7C
:102590002C432343D8F8A043C8F80030D36A24F46E
:1025A00080342343C8F8A03390E008EBC1142646DA
:1025B000A646A24656F8803F23F070433360336846
:1025C00007935EF8E83F0D935AF8E4BF136B089346
:1025D000D2E90D930B93D36BB9F1000F0C93936C6D
:1025E0000A93136D09935369019393690293D36915
:1025F0000393136A0493536A0593936A0693D8F876
:10260000A0C306D1176C2B462BF4807547EA050B47
:102610001D46576C47F48053B3F5F05F02D1B9F112
:10262000400F03D12BF4F05343EA070BD36C04297A
:1026300000930BD834A34F1C53F8213003EA0C034A
:10264000AC46D56ABD402B4365469C46079B019F1F
:102650002B4020353D40029F2B43304D2F4005F548
:1026600080653B43039F3D40049F2B432C4D2F40EF
:1026700005F100653B43059F3B432B40069D25F438
:1026800000352B43089DB5F1005F08BF03F500330B
:10269000099F244D2B4029F0FE7527F0FC773D4320
:1026A0000A9F3D432B4333601F4B0D9D2B400B9DD9
:1026B00005F01F052B440C9D2B43CEF80030CAF8C3
:1026C00000B0009BC4F8D430C8F8A0C3C1EBC1036C
:1026D00092E8F0001269052900EB830303F1200C56
:1026E0001A63ACE8F00007D812A252F82110D8F80B
:1026F00084231143C8F8841301F06CFC18460EB013
:10270000BDE8F08FDFF3FFF1FFFFFDFFFFFFFBFFF1
:10271000FFFFF7FFFFFFEFFFFFFFDFFFFFFBFD0105
:10272000FFFFFD07BFFF03FEE0FFFF7FFFFBFF1181
:10273000FCFFFFDF020000000400000008000000B2
:102740001000000020000000010000001A480349AA
:1027500000780A6810440860704700BF580A0020DB
:1027600080B5D148016841F010010160032000F0FC
:1027700073F80F2000F004F800F020F8002080BD6E
:1027800070B50D4E04464FF47A713078B1FBF0F01D
:10279000CD490968B1FBF0F000F032FB01250F2CA8
:1027A00008D838B94FF0FF3021460022002500F04C
:1027B0002DF87460284670BD0400002082B00A48DD
:1027C000016841F001010160016801F0010101911E
:1027D0000199416841F080514160406800F08050AB
:1027E0000090009802B0704718100240002809D4E9
:1027F000734601F0F2FA9E46034A42EAD00020F006
:1028000003000160704700BF00E100E0F0B5184B25
:102810004FF0FF361C68C4F30224E51E84F0070461
:1028200038BF002506FA05F7BA43042C28BF042454
:1028300006FA04F4A14300F00F04A940043C11433C
:10284000044A234409010244002848BF03F10C0252
:102850001170F0BD00E400E005494FF6FF030A687F
:102860001A4060F30A22034810430860704700BF13
:102870000CED00E00000FA052DE9FC4104468078EB
:10288000404EC00743D0306810F0805808D13068FF
:1028900040F080503060306800F080500190019826
:1028A000394F3868C00511D4386840F480703860FA
:1028B000FFF7E0FA05463868C00507D4FFF7DAFAF3
:1028C000401B6428F7D90320BDE8FC81706810F430
:1028D00040700FD0616801F4407188420AD02B49E2
:1028E000706801220A6000220A6020F44071C0076B
:1028F000716038D16068716821F440710843B8F1A3
:10290000000F706003D1306820F080503060206884
:10291000C10705D0A168726922F0030211437161F9
:10292000810605D5E168726922F0100211437161D8
:10293000010605D52169326922F4F872114331612B
:10294000C10405D56169726922F480721143716115
:10295000400405D5A069716921F480510843706174
:102960000020BDE8FC81FFF785FA054641F2883773
:1029700070688007BED4FFF77DFA411B0320B9427F
:10298000F6D9EEE71C1002400070004040044242BD
:102990002DE9F84300285ED00D46434904460868F7
:1029A00000F00700A84209D2086820F00700284379
:1029B0000860086800F00700A8424CD12068514B1D
:1029C0008946810705D5A1681A6822F0F0021143F3
:1029D0001960C00736D1D9F8000000F00700A842FE
:1029E0000CD9D9F8000020F007002843C9F80000EE
:1029F000D9F8000000F00700A8422CD12068410758
:102A000005D5E1681A6822F4E062114319600007F5
:102A100006D52069196821F4605141EAC0001860A8
:102A20001C4600F055F82168204AC1F30311515C9F
:102A3000C840254908601E480068FFF7A1FE002035
:102A4000BDE8F8836068022808D0012826D153F831
:102A5000041C890306D40120BDE8F88353F8041C44
:102A60008901F8D51968984621F0030108431860D8
:102A7000FFF700FA064641F288376068D8F8001080
:102A8000434601F00C01B1EB800FA4D0FFF7F2F93F
:102A9000801BB842F1D90320BDE8F88353F8041C29
:102AA0008907D8D5DEE700BF002002403072000859
:102AB0000800002004481349044A00680968C1F36B
:102AC0000221515CC84070470C0000204072000891
:102AD00010B50C490C480A6802F00C03082B08D109
:102AE000C2F3834309A4896AD203E35C02D40F488A
:102AF000584310BD01F00F0108A2515CB0FBF1F08A
:102B0000584310BD0410024000127A00020304056D
:102B1000060708090A0B0C0D0E0F10100102030422
:102B200005060708090A0B0C0D0E0F1000093D00E1
:102B30002DE9FC4100287ED004460078AD4EC00748
:102B400044D0706800F00C00042805D13068800380
:102B50003CD56068D0BB6EE001F03AF902D17068F4
:102B6000C003F3D467682FB1B7F5A02F0AD0B7F52B
:102B7000803F0BD0306820F480303060306820F423
:102B8000802006E0306840F480203060306840F4F7
:102B900080303060A068F16A21F00F010843F062D4
:102BA000FFF768F9054677B1306880030ED4FFF768
:102BB00061F9401B6428F7D9F7E0FFF75BF9411B87
:102BC0000320642935D830688003F6D42078800744
:102BD00016D5706810F00C0F05D001F0F9F861D12E
:102BE0007068C0035ED43068800702D52069012870
:102BF00021D16069316821F0F80141EAC0003060FC
:102C0000207800071AD4207840072AD4E7697FB1DA
:102C100001F0DEF873D1012F0DD0216A706800F445
:102C200080328A4207D1616A00F47010884202D172
:102C30000020BDE8FC810120BDE8FC81A0690028DE
:102C40004CD06D480121C0F88014FFF713F90546F8
:102C5000706A8007D7D4FFF70DF9401B0228F7D917
:102C6000A3E0F06910F0805808D1F06940F080507E
:102C7000F061F06900F08050019001985F4F386872
:102C8000C00521D4386840F480703860FFF7F2F84E
:102C900005463868C00517D4FFF7ECF8401B6428D8
:102CA000F7D982E021695448002947D00121016009
:102CB000FFF7E0F80546306880079AD4FFF7DAF8A6
:102CC000401B0228F7D970E0E068002846D00528AC
:102CD00056D0012858D000F0FEFF58E046480021A9
:102CE000C0F88014FFF7C6F80546706A80077FF5C4
:102CF0008AAFFFF7BFF8401B0228F6D955E03E49DE
:102D0000002088460866FFF7B5F80546022F0AD16D
:102D100047463068800154D5FFF7ACF8411B0320CB
:102D20000229F6D985E7306880017FF581AFFFF78A
:102D3000A1F8411B03200229F5D97AE7002101609F
:102D4000FFF798F80546306880077FF559AFFFF721
:102D500091F8411B03200229F5D96AE700F0BBFF77
:102D60003062FFF787F8054641F28837306A8007FE
:102D70001ED5FFF77FF8411B0320B942F6D958E76B
:102D8000306A40F004003062306A40F00100306286
:102D9000FFF770F8054641F28837306A800707D49C
:102DA000FFF768F8401BB842F7D90320BDE8FC8163
:102DB000B8F1000F7FF42AAFF06920F08050F06185
:102DC00024E7D4E90801726822F47412114308431D
:102DD000706001203866FFF74DF8044630688001C6
:102DE0003FF526AFFFF746F8011B03200229F5D96E
:102DF0001FE700BF00100240000042420070004088
:102E0000411E0020B0EB116F1CBF01207047044A27
:102E1000F023516003490B700721906011607047E7
:102E200010E000E023ED00E07047704770470000BD
:102E300070B50446006840F60F03C26901688568F2
:102E40001A4261D0904B01EA030605F00103F6181F
:102E50005ED0D50709D0CD0507D501250562D4F888
:102E6000845045F00105C4F88450950708D53BB15E
:102E700002250562D4F8845045F00405C4F8845056
:102E8000550708D53BB104250562D4F8845045F0B8
:102E90000205C4F8845015070BD501F020055B1915
:102EA00007D008230362D4F8843043F00803C4F841
:102EB000843013050AD54B0108D54FF40063036233
:102EC000D4F8843043F02003C4F88430D4F884303C
:102ED000002B00F0D880920606D5890604D5A16E95
:102EE00011B1204688472068D4F88410806801F02A
:102EF000280100F04000401837D12046FFF796FF28
:102F00000020C4F88400BEE0930601D58B0644D4AB
:102F1000236E012B03D1D30601D5CB0644D4D302B3
:102F200001D56B0219D4100601D5080633D450061A
:102F300040F1A980480640F1A68000F0CBFF20F0C8
:102F4000400001F007F9F8D10020E0662020E0679A
:102F50002046BDE8704000F0ABB94FF4801101622B
:102F60002046BDE87040FFF760BF204601F091FAAF
:102F70002068806840064ED500F0C5FEFCD1606F29
:102F8000002848D041494163FEF7B7FD00287AD0B8
:102F9000606F416B05E0E16E00E0A16E002972D028
:102FA0002046BDE870400847102101628068400655
:102FB00036D4B4F85A00B4F85810B4F85A20002A9D
:102FC00061D081425FD0081A216851E8001F226851
:102FD00021F4907142E80013002BF5D1216851E8EB
:102FE000021F226821F0010142E80213002BF5D1F3
:102FF0002021C4F880100021A1662166216851E8D3
:10300000001F226821F0100142E80013002BF5D1C7
:103010000221616631E02046BDE87040FFF706BF3F
:10302000606F016849688AB26AB3B4F858309A424E
:1030300029D2A4F85A108069202817D000F04AFF3E
:1030400020F4807001F086F8F8D100F0D2FEFCD1B7
:1030500000F059FEFCD12020C4F88000002020663A
:1030600001F012F8FCD1606FFEF728FD02206066C7
:10307000B4F85800B4F85A10401A81B22046BDE89E
:103080007040FFF7D1BE70BD20010004B5430008B9
:1030900010B540B10446C06F08B901F08CF801F0DA
:1030A00026F8012801D1012010BD606A08B100F0A6
:1030B000C4FF00F0B6FF21F02A01816000F0ACFEF1
:1030C000BDE8104001F032B970B586B0044601A8E1
:1030D0001421FDF7F1F920685949884231D0364969
:1030E000884267D135480026416841F480414160FB
:1030F000416801F4804100910099016841F4003178
:103100000160006800F4003000F059FE4FF4C06028
:103110000190009801A94FF09040FEF7CBFD2A4A9C
:103120002A4D202080212832C5E906062846C5E917
:103130000261C5E90466C5E90026FEF743FD2526C0
:103140002BE01E480026816841F48021816081685F
:1031500001F4802100910099016841F4802101600F
:10316000006800F4802000F02AFE4FF440600190D7
:10317000009801A91248FEF79DFD124D2020124A29
:103180008021C5E906062846C5E90026C5E9026191
:10319000C5E90466FEF716FD272608B1FDF7ACFE6B
:1031A0003046002100226C626567FFF72FFB304636
:1031B000FFF71CFB06B070BD003801401410024040
:1031C000000400482C03002030000240E8020020E8
:1031D000B0B5D0F88030202B1CBF0220B0BD69B143
:1031E00062B10023036603685B681B0202D500F02E
:1031F00052FEFCD1BDE8B04001F010BA0120B0BDD4
:10320000F8B50F4D0446006805F57041884209D1B4
:103210000C4E0D480122012706F10C01FFF7D8FFE3
:1032200020687773A84200D0F8BD064C07480122F9
:10323000012504F10C01FFF7CBFFA573F8BD00BF1A
:1032400000480040F40000204C040020D40400207A
:1032500070470000C36F202B1CBF0220704791B144
:103260008AB10023A0F85220C0F88430C164212123
:10327000A0F85020C1678168B1F5805F01D1016974
:1032800019B10A4902E0012070470749C166016887
:1032900051E8001F026841F0800142E80013002B52
:1032A000F5D10020704700BFA5460008F146000890
:1032B00070470000B0B5584C00212046FEF74BFE89
:1032C00020464FF40031FFF7F7F8174D287818B370
:1032D000164C207890B100F0F8FC164A144801789A
:1032E00012888A4214D800210170134829700121E4
:1032F0000170207880F00100207009E00C4D0F492A
:103300002878095C11B100F0E0FC287801302870C1
:10331000207880F0010020703F484FF40031BDE874
:10332000B040FFF79FB800BF030100200401002058
:103330001001002008010020F5000020EC0600200C
:1033400010B53448007800285DD0334801210122AF
:10335000FEF7EFFD3149324A086011680B1A38BF99
:10336000431A30498C783CB1C92B10D32F4B1B78B2
:1033700093B101234B701DE0C92B3AD32B4B002492
:1033800010601C7040F20113A1F8013031E04B785D
:1033900053B100234B700AE00B78012404FA03F3C5
:1033A0008C8823438B8002E01F4B01241C701F4B31
:1033B0001B780BB10C7803E00B785C1C00230C70BD
:1033C00010601A4A83F0010010701948E2B20B2A0B
:1033D000007808BF002802D0082A0AD148B1154851
:1033E0000122027000208A88887008808880124834
:1033F00002800D48007830B10020888088700880F5
:103400000C480121017004480121BDE81040FEF77D
:10341000A2BD00BFF700002070030020FC010020C7
:1034200018010020EC000020FB000020100000200C
:10343000FA000020F60000200A01002070B50068A4
:103440000A29D0F8B043D0F8B453D0F8B83300F21A
:10345000CB80DFE801F0060E223446586C8293A43C
:10346000B5000021C0F8B013C0F8B413C0F8B81309
:1034700070BD24F03F0192E83800126903F00303A5
:1034800002F02002194404F00403194405F0180363
:103490001944C0F8B013114446E092E82A0024F41D
:1034A0007C64126903F0040361F3871400F0AEFD3D
:1034B00044EA8111C0F8B01341EA821134E092E885
:1034C0002A0024F47C34126903F0040361F30D3400
:1034D00000F09CFD44EA0131C0F8B01341EA02312A
:1034E00022E092E82A0024F47C04126903F0040329
:1034F00061F3934400F08AFD44EA8141C0F8B013BF
:1035000041EA824110E092E82A0024F07C541269DA
:1035100003F0040361F3196400F078FD44EA0161EB
:10352000C0F8B01341EA0261C0F8B01370BD25F0D5
:103530001F0192E87000D26804F00304214405F0F2
:103540000404214406F018042144C0F8B4131909F6
:1035500061F31F12C0F8B82370BD92E8520025F441
:10356000F865D26804F0040461F3871506F01801C9
:1035700062F38913214445EA811131E092E8520057
:1035800025F4F835D26804F0040461F30D3506F033
:10359000180162F30F33214445EA013120E092E83B
:1035A000520025F4F805D26804F0040461F3934551
:1035B00006F0180162F39543214445EA81410FE08A
:1035C00092E8520025F0F855D26804F0040461F343
:1035D000196506F0180162F31B63214445EA016195
:1035E000C0F8B413C0F8B83370BDFEE700000000A7
:1035F000F8B52DED0C8B604C60490028A388A26AB9
:1036000041F8232018BF012066895E4A04EB800040
:1036100085695B48013666815E1C2F0C1FFA85FCAC
:10362000E580B5B2A68040F823C042F823706388D5
:10363000C4E908C727819D4209D2A248FEF748F88D
:10364000894804F118010222FDF708FD77E025788A
:1036500094ED030A94ED049A94ED058A1E46FEB19A
:1036600092ED001AB8EE411A30EE010A84ED030A19
:103670008DB190ED001A022DB8EE411A39EE019A83
:1036800084ED049A07D191ED001AB8EE411A38EE94
:10369000018A84ED058A043104300432013EDEE7FC
:1036A00001EE103A9FED38BA9FED38CAB8EE41AA44
:1036B00080EE0A0A00F09CFA84ED030A03F0BEFCD7
:1036C0009FED250B53EC102B03F08EF89FED240B90
:1036D00053EC102B03F0C6FA9FED230B53EC102B89
:1036E00002F0CEFF02F09AFF294E306025B389EE3A
:1036F0000A0A0DEE100A00F07BFA84ED040A03F0CA
:103700009DFC9FED1B0B53EC102B03F0ABFA02F06A
:1037100085FF00EE100A022D70602DEE000A86ED86
:10372000030A09D188EE0A0A0020B06020EE0B0AD5
:1037300020EE0C0A84ED050A164801210170C848E4
:103740004FF40071BDEC0C8B01B0BDE8F040FEF70A
:1037500082BB00BF00BF00BFCDCCCCCCCCCCFC3FEB
:10376000DD2406819543F13F4C37894160E5A0BFD8
:10377000D712F241CF4636407800002038070020AB
:10378000C80800205C050020000080393333534016
:10379000240100200601002070B5054649480C466A
:1037A000FDF796FF074E3048022206F11801FDF79B
:1037B00055FC002075803470B080C6E9030070614C
:1037C00070BD00BF78000020B0B58AB00024182179
:1037D0000994CDE9074401A8FCF76EFE22480225B2
:1037E00001214FF480324FF0A043C5610425C4622B
:1037F00080F82040816280F8304044630483C0E94F
:103800000032C0E90244C0E90415FDF71DFE08B10D
:10381000FDF772FB4FF400400994089006200790D2
:10382000114807A9FDF7AEFB08B1FDF765FB0020C5
:103830000121022403250490CDE905000A480291E4
:103840000194039501A9FDF775FC08B1FDF754FB40
:103850000548CDE9015401A9FDF76CFC08B1FDF75D
:103860004BFB0AB0B0BD00BF04020020B0B586B06B
:103870001448154A00244FF480310125042380F8B0
:10388000204080F83040C56144630483C0E90021D2
:10389000C0E90244C0E90443FDF7D6FD08B1FDF7D5
:1038A0002BFB03206946CDE900550594CDE903447F
:1038B00002900448FDF73EFC08B1FDF71DFB06B081
:1038C000B0BD00BF540200200001005010B50B48ED
:1038D00001210B4C4FF480032A2241620021C0E9F0
:1038E00000438161C0E902120161FDF75FFF18B179
:1038F000BDE81040FDF700BB10BD00BFA4020020D2
:10390000200001401FB50B480B49002402940160C0
:10391000FEF760F808B1FDF7EFFA022001940022EB
:103920000390044801A9FEF725F808B1FDF7E4FA71
:103930001FBD00BFD402002000980040BCB547481E
:103940000F4C0022016841F0010101600021006874
:1039500000F00100019001980B20A047094D0B20B9
:10396000A8470D2000210022A0470D20A8470F20C6
:1039700000210022A0470F202946BDE8BC4008478F
:103980000D280008ED2700082DE9F04786B0002635
:10399000324800224FF49079CDE90466016841F481
:1039A00000210160016801F4002100910099016883
:1039B00041F480010160016801F4800100910099E7
:1039C000016841F400310160016801F400310091A7
:1039D0000099016841F4802101604FF49071006802
:1039E00000F48020009000984FF09040FEF73BFAE2
:1039F0001B4C46F20721002246F207282046FEF71C
:103A000032FA4FF40050CDE90266A246154F0190FC
:103A100004F5806001AC2146B84701254FF0904085
:103A20002146CDE90366CDE90195B84750462146C8
:103A3000CDE90366CDE90185B84709202146059007
:103A40000320CDE90360022002904FF40060019052
:103A50004FF09040B84706B0BDE8F0871410024020
:103A600000040048B51C000870B5A0B01BA81421C4
:103A7000FCF722FD00255421CDE91955CDE9175554
:103A800002AC2046FCF718FD464847490195C0E9BD
:103A900000158560FEF7CAFB08B1FDF72DFA414815
:103AA0004FF0FF31FEF7F5F908B1FDF725FA3D4873
:103AB0000A21FEF74BFC08B1FDF71EFA3948002138
:103AC0000026FEF712FA08B1FDF716FA0825354868
:103AD0001F96CDE91B6604211D951BAAFEF7F1F97F
:103AE00008B1FDF709FA05201A9500250021199063
:103AF0004FF4FA40189517902A4817AAFEF746FC8B
:103B000008B1FDF7F9F9012018210795CDE9035512
:103B1000CDE908550A95CDE90C55CDE90550402071
:103B200002904FF000500E904FF000600B9004F1A7
:103B30003400FCF7C1FC02200021224616951590A6
:103B40001848FEF7F3FC08B1FDF7D6F94FF48050A2
:103B50000121159000200B9010200290114802AA1C
:103B6000FEF7E4FC08B1FDF7C7F92020012101228E
:103B700001900C4801ABFEF73BFC08B1FDF7BCF926
:103B8000002001211990FF2018904FF6DF70179048
:103B9000044817AAFEF7FAFB08B1FDF7ADF920B00B
:103BA00070BD00BF700300200074014010B50548CF
:103BB000054C00F07AF818B1BDE81040FDF79CB94B
:103BC00010BD00BF4C0400200038014010B505486E
:103BD000054C00F06AF818B1BDE81040FDF78CB94B
:103BE00010BD00BFD404002000480040FEE7FEE7FF
:103BF00020EE0B0A20EE0C0A10EE100A704703218B
:103C0000B0FBF1F101EB4101401A704750F8042B71
:103C100041F8042B50F8042B41F8042B50F8042BE6
:103C200041F8042B50F8042B41F8042B50F8042BD6
:103C300041F8042B50F8042B41F8042B50F8042BC6
:103C400041F8042B50F8042B41F8042B50F8042BB6
:103C500041F8042B50F8042B41F8042B50F8042BA6
:103C600041F8042B50F8042B41F8042B50F8042B96
:103C700041F8042B50F8042B41F8042B10F8012BC9
:103C800001F8012B10F8012B01F8012B10F8012B82
:103C900001F8012B7047016841F080510160016813
:103CA00001F0805100910099704700210C224FF4DF
:103CB0001653C0E90043C0E90211C0E90412C0E98B
:103CC0000611C0E90811FFF7E3B94FF090404FF437
:103CD0008071FEF7C0B8306A20F001003062306AAF
:103CE00020F004007047116841F0010111600221C9
:103CF00080F829100021704700EBC510C0F888102B
:103D0000204629467047206850E8020F216820F0BD
:103D1000400041E80202002A704750F8042B41F8A5
:103D2000042B50F8042B41F8042B50F8042B41F8D5
:103D3000042B50F8042B41F8042B50F8042B41F8C5
:103D4000042B50F8042B41F8042B50F8042B41F8B5
:103D5000042B50F8042B41F8042B50F8042B41F8A5
:103D6000042B50F8042B41F8042B50F8042B41F895
:103D7000042B50F8042B41F8042B50F8042B41F885
:103D8000042B50F8042B41F8042B50F8042B41F875
:103D9000042B10F8012B01F8012B10F8012B01F86E
:103DA000012B10F8012B484601F8012B704741F414
:103DB00000310160006800F400300090704700900E
:103DC000072003960590032004900220029070477C
:103DD000706800F00C000828704700F01F010122F5
:103DE000C0B202FA01F1704790F8C0400223012CE2
:103DF0007047206850E8020F216820F0010041E878
:103E00000202002A7047799828607898686077984D
:103E1000A860769828737047016841F0010101603D
:103E20002046704720464FF400510022FEF71BB891
:103E300094F83C0001287047044690F8C10002281D
:103E40007047016851E8001F026821F4907142E850
:103E50000013002B70472046FEF705B8016C41F0B7
:103E60002001016401217047016851E8001F0268C8
:103E700041F0400142E80013002B704782B25846DF
:103E80003146FFF7E7B9816841F00401816070476E
:103E90000FCB00F025BD036853E8003F046843F0F2
:103EA000806344E80035002D704779982060789849
:103EB00060607798A060769820737047002084F83F
:103EC0003C007047226C42F48012226401F1F4023B
:103ED00090427047206850E8000F2168704700F555
:103EE00080702064D1F8FC02C006704700222B4687
:103EF0000090204600F020BCC2F8CC13D2F8CC13BE
:103F000041F00101C2F8CC130121002280F8C11058
:103F10007047B0F85810FEF787BF2068226C22F473
:103F200080122264C268704790F8C0300222012BD0
:103F30007047016851E8021F026821F0400142E821
:103F40000213002B704740F8041B54F8041B40F880
:103F5000041B54F8041B40F8041B54F8041B40F8DD
:103F6000041B54F8041B40F8041B54F8041B40F8CD
:103F7000041B54F8041B40F8041B54F8041B40F8BD
:103F8000041B54F8041B40F8041B54F8041B40F8AD
:103F9000041B54F8041B40F8041B54F8041B40F89D
:103FA000041B54F8041B40F8041B54F8041B40F88D
:103FB000041B14F8011B00F8011B14F8011B00F886
:103FC000011B14F8011B00F8011B7047002184F845
:103FD0003C1010BD0023012180F8C03080F8C110D2
:103FE0007047072084F8C1007047016851E8001F3E
:103FF000026821F4807142E80013002B704763646B
:104000001C230022036084F83C20704705F018014F
:1040100002F0200219447047206C40F60171884379
:1040200070472068416821F4904141608168704781
:10403000206850E8020F21687047204600F022B93E
:1040400004460068816801F00301012970470446B5
:104050000068806840077047002180F8C01080F831
:10406000C1400024704782B258462146FFF7F2B89B
:10407000044690F83C00012870470022012180F896
:10408000C02080F8C1107047206850E8000F2168F8
:1040900020F0100041E80002002A7047002084F858
:1040A000C000704743F00203C2F8CC33D2F8CC33DF
:1040B00023F00C0319437047C0F88C132046704757
:1040C000002084F8C00084F8C150704790F8C130D7
:1040D000022B70470FCB00F07CBB2046FCF78CBE58
:1040E000002180F8C010072180F8C11070472420FB
:1040F000E0672068016821F001010160204600F0BE
:10410000F5B9026802EBC1111A68704790F8C05007
:104110000224012D70470ECB01F022BE016851E848
:10412000021F026821F0010142E80213002B7047D0
:10413000816020460521704790F8C11001240729AD
:1041400070470120FDF7A4BD012084F83C00204603
:10415000FCF778BE41E80002002A704700200121E8
:1041600084F8C00084F8C11070470125204684F807
:10417000C050704780F8C120D0E90023D2F89043A6
:10418000704701467C982047206C40F01000206466
:10419000606C40F0010060640120B0BD016851E82E
:1041A000001F026821F0100142E80013002B704745
:1041B0002046FCF71DB9002084F878002046FEF761
:1041C00083BF799901607899416077998160769988
:1041D000017370477047704780B5FEF7B7FA024821
:1041E0000121017080BD00BF05010020B0B596B06F
:1041F0006846002414210430CDE91144CDE90F4470
:10420000FCF75AF94FF4C010022501210E941590C5
:104210004FF48030139510911490CDE90C100CA838
:10422000FEF786FC18B1EFF3108072B6FEE74FF48C
:1042300080600B940221CDE909400F20CDE90705EC
:1042400007A8FEF7A5FB18B1EFF3108072B6FEE7E2
:104250004FF4805006900020029044F2010000903C
:104260006846FEF709FB18B1EFF3108072B6FEE75F
:1042700016B0B0BD0248016841F47001016070479A
:1042800088ED00E010B5416ACA0706D00268836A6B
:10429000546824F40034234353608A0706D5026827
:1042A000C36A546824F48034234353604A0706D514
:1042B0000268036B546824F48024234353600A0784
:1042C00006D50268436B546824F4004423435360CA
:1042D000CA0606D50268836B946824F4805423438D
:1042E00093608A0606D50268C36B946824F4005470
:1042F000234393604A060FD50268036C546824F484
:1043000080141C43B3F5801F546005D1436C54687E
:1043100024F4C00423435360090606D50168806C69
:104320004A6822F400221043486010BDBCB5044620
:104330000020C4F88400FDF79DFD05462068016853
:10434000090711D56FF07E404FF40011FFF7CEFD45
:1043500048B1FFF7BFFD20F08000FFF7FBFEF8D16A
:104360002020E06719E020680068400717D56FF04B
:104370007E404FF48001FFF7B9FD80B1206850E81E
:10438000000F216820F49070FFF7E4FEF6D1FFF7EC
:1043900030FDFCD12020C4F88000032006E020205E
:1043A000E067C4F88000002020666066002184F881
:1043B0007810BCBD406A0021A0F85A10A0F8521035
:1043C000FEF734BDB0B5446A2068E16FD4F8805080
:1043D0008268120608D5212906D10020A4F85200CF
:1043E000204600F075F820688068400607D5222D29
:1043F00005D10020A4F85A00204600F04AF8D4F86D
:10440000840040F01000C4F884002046BDE8B040AD
:10441000FEF70CBD8169406A202924D00021A0F854
:104420005A104DF808EDFFF7E0FD5DF808EBF8D104
:104430004DF808EDFFF772FE5DF808EBF8D14DF886
:1044400008EDFFF776FD5DF808EBF8D12021C0F804
:104450008010016E012906D14DF808EDFFF79EFE90
:104460005DF808EBF8D100214166016E012918BF03
:10447000FEF7C6BEFFF74DBD406A01214166016EE1
:10448000012918BFFEF7E4BEB0F858104908FEF73E
:10449000CBBC4DF808EDFFF7D4FC5DF808EBF8D184
:1044A0004DF808EDFFF73AFE5DF808EBF8D1016E24
:1044B000012906D14DF808EDFFF770FE5DF808EB15
:1044C000F8D12021C0F88010002181660166704774
:1044D000016851E8001F026821F0C00142E80013A2
:1044E000002BF5D12021C1677047000070B504464C
:1044F0000068404E04F108030ECB0568354066693C
:104500001943314341EA0503E1690B430360436802
:1045100023F440531A434260A269236A1A43836812
:1045200023F430631A43344B8260002298420ED049
:10453000324B98420BD0324A904207D1314832A2D6
:10454000006800F0030052F8202000E010223248FA
:10455000B1F5004F0CD10121082A45D8DFE802F05F
:1045600005441B44154444441900FEF7A3FA0EE029
:104570000121082A38D8DFE802F00537273721372C
:1045800037372500FEF796FA1AE0FEF7A1FA10B9C0
:1045900027E04FF4004061684A0802EB40004FF604
:1045A000EF72B0FBF1F0A0F1100191421BD84FF671
:1045B000F0710140C0F34200084410E0FEF788FAB1
:1045C00010B90EE04FF4004061684FF6EF7200EB57
:1045D0005100B0FBF1F0A0F11001914203D8216825
:1045E000C860002100E001210020C4E91A0008464B
:1045F00070BD00BFF369FFEF004400400048004079
:1046000000380140301002400000000004000000AB
:10461000080000000200000000127A00F8B51346FE
:104620000A4600210446C0F88410A0F858304265BC
:104630002220C4F88000606F98B1174D174E184FB4
:10464000C0E90C512168C0E90A762431FDF7ECFA83
:1046500038B11020C4F884002020C4F88000012064
:10466000F8BD206930B1FFF735FC40F48070FFF7EA
:1046700071FDF8D1FFF7DCFC40F0010041E80202D7
:10468000002AF7D1FFF7D4FC40F0400041E80202D5
:10469000002AF7D10020F8BDC5430008794400087E
:1046A00015440008C16F212921D1B0F8521069B119
:1046B000C26C016832F8023B6FF35F230B85C26462
:1046C000B0F852100139A0F8521010E0016851E81A
:1046D000001F026821F0800142E80013002BF5D191
:1046E0004DF808EDFFF7C0FB5DF808EBF8D1704717
:1046F000C16F21291FD1B0F8521059B1C26C0168A5
:1047000012F8013B0B85C264B0F852100139A0F8D1
:10471000521010E0016851E8001F026821F080018A
:1047200042E80013002BF5D14DF808EDFFF79CFB94
:104730005DF808EBF8D170472DE9F047DDF82090DF
:1047400082460068984616460F46032509F1010483
:10475000C1693940C91BB1FA81F14909B1421AD185
:10476000002CF5D0FDF786FBA0EB0800484513D8D8
:10477000B9F1000F10D0DAF8000001684907E7D559
:10478000C16909070BD4C1690905E1D503252024B6
:104790004FF4006106E000252846BDE8F0870125BA
:1047A0000821082401625046FFF773FE00208AF8B2
:1047B0007800CAF88440EFE70148FEF739BB00BF34
:1047C0004C0400200148FEF733BB00BFD404002096
:1047D000FEE784B070B504AC0FC404AA0020002327
:1047E00002F10901082B04D0CC5C9C40013320432A
:1047F000F8E702F1140192F83F20002393420CD015
:1048000000240025082D04D04E5DAE400135344310
:10481000F8E720440B310133F0E7C0B2BDE8704047
:1048200004B07047F0B5C3071CBF0120F0BDC0F352
:10483000470544080026082E06D025FA06F7FF078C
:1048400018BF01330136F6E745055CBF0320F0BD14
:10485000012A0DD0032A09D1E2B20C78497821440B
:10486000C9B291421CBF0420F0BD02E011440139DD
:104870000C700121C0F340209943401AB0FA80F037
:1048800040094000F0BD000011489FED121A90ED64
:104890000D0A31EE400AB2EE041A80EE011A9FEDC5
:1048A0000E0A21EE001AB4EE401AF1EE10FA0ADCFC
:1048B0009FED0A2AB0EE410AB4EE421AF1EE10FA68
:1048C000B8BFB0EE420ABDEEC00A10EE100A704743
:1048D000F40000206666EE410000FE42000000C3C6
:1048E00084B08DE80F009DF83F201E200B2112FBA5
:1048F000010004B070470000ADF5727DFDF730FF98
:10490000FFF774FCFFF740F8FFF718F8FFF7ACF873
:10491000FEF75AFFFEF7AAFFFEF7F4FFFFF746F98E
:10492000FFF754F9FEF7D2FFDFF8544A00210025C3
:104930002046FDF79FF8DFF8140F0021002243887E
:104940002046FDF787F8DFF8088FDFF8080F01260B
:10495000012208F10C0488F80F50C8E9075588F8BF
:104960001060A8F80D5088F811502146FEF730FC71
:10497000DFF8E80E21460122FEF72AFCDFF8E00E00
:104980000021FCF7BDFADFF8DC0E0021FCF7B8FAD5
:104990000A20FDF77DF901200221FEF7FDFEDFF878
:1049A000C80EFCF78FFFDFF8C49E4FF40031484675
:1049B000FDF744FD48464FF40031FDF753FDF44C3C
:1049C000DFF8D87E4FF4804101222046B847FFF738
:1049D000B8FB20464FF400510022B847204604217E
:1049E0000122B847204602210022B84748464FF42A
:1049F0008021FDF723FD48464FF48021FDF732FD6D
:104A00004FF0904020210122B8478DF8BB638DF80C
:104A10006F63DFAF082D04D0CCA87E554655013515
:104A2000F8E707F1100069467F90FFF7EFF8DFAB7A
:104A3000FFF72EFA0DF51379A8F81400484601F097
:104A4000B4F9FF20DFF80CBE9FEDD2BA9FEDD2CBB8
:104A50009FEDD3EA9FEDD4FB9FEDD59B4FF0000A6D
:104A6000BFEE008AB3EE09AAB3EE0CDA002588F88F
:104A70002800CCA800F14001629100F11301083038
:104A8000609007F1400061917C9007F113007B90EA
:104A900007F108007A90DFF8080E01687991416803
:104AA00078918168007B7690DFF8F80D7791016846
:104AB0005C914168007A5A90DFF8EC0D5B910168D7
:104AC00057914168007A5590DFF8E00D56910168E2
:104AD00054914168007A5290DFF8D40D53910168E7
:104AE00029914168289181682791C1682691018A9E
:104AF000807C2490DFF8BC0D2591016823914168EA
:104B0000007A2190DFF8B00D229101684A91416846
:104B1000499181684891C168008A4690DFF89C0DF0
:104B20004791016845914168449181684391818929
:104B3000807B4190DFF8880D4291016820914168A7
:104B40001F9181681E91C1681D9101691C91416985
:104B50001B91018B807E1990DFF8680D1A91016816
:104B6000409141683F9181683E91C168008A3C90C4
:104B7000DFF8540D3D9101683B9141683A9181689D
:104B80003991C168008A3790DFF8400D389101688B
:104B900036914168359181683491C168008A3290BC
:104BA000DFF82C0D33910168189141681791018944
:104BB000807A1590DFF81C0D1691016831914168DB
:104BC000007A2F90DFF8100D309101682E91416826
:104BD0002D9181682C91C168008A2A90DFF8FC0C25
:104BE0002B91016814914168139181681291C168F9
:104BF000007C10900FF6E840119141686F91816838
:104C00006E91C1686D91016940696B900FF6E84043
:104C10006C9141686A9181686991C1686891016984
:104C20006791818A807D65900FF6E44066914168C6
:104C3000519181685091C1684F9101694E914169CC
:104C4000008B4C900FF6E4404D9141685F91816874
:104C5000C0685D9000205E914B9000207390002012
:104C60007D9000207E9001207190012070900020A6
:104C700072900020639000207590002074900020B6
:104C800064907E9880F0010498F80200002800F0FB
:104C9000B381404610F8071F11B100250570A9E146
:104CA00098F80600D8B3B8F816305FFA83F9B9F16E
:104CB000550F00F09680B9F1AA0F00F09D80B9F170
:104CC000CC0F00F09D80B9F1FF0F40F0CE80DFF8EF
:104CD0007C0B7E990678301FB0FA80F040090840BE
:104CE000012840F0CD807D98000640F0C980DFF8B3
:104CF0004C0CDFF8041C88F805A088F809A00160B6
:104D00006A994160699981606899C1606799016198
:104D100066998182659981750121759134E16E1CD6
:104D2000B8F8160008F11801F2B2FFF77BFD002871
:104D300042D0DFF808BCB8F81630DFF8041C024691
:104D40005846FBF7A7FA7A98DFF8F85B1521A847D1
:104D50007B980021A8477F986946FEF757FFDFAB95
:104D6000FFF7B8F901467C98A84707F10C0069469F
:104D70005D46FEF7D2FFDFABFFF7CDF918B97146FC
:104D8000FFF741F88E46DFF88CBE88F808A025E1D1
:104D90000004004800001C4248E17A14AE47F53F89
:104DA00000007A4400BF00BF0000000000804140C6
:104DB0000000000000006040E8B2DFF86C5E0228EE
:104DC00000F08380012800F0AC80002840F00681CC
:104DD00098F81820DFF8341E2846FBF75BFA012606
:104DE000FCE0DFF82C0E0078043818BF01202043C7
:104DF000C00704BF002075902E46DFF82C5EC5E08A
:104E00007A98DFF8206E1521B0477B983321B047A0
:104E10007F986946FEF7FAFEDFABFFF75BF90146C4
:104E20007C98B047DFA869460C3050F8042B41F855
:104E3000042BFEF7EBFEDFAB0ECB93A800F090FF48
:104E400090B30120DFF8E05D002688F80400DFF869
:104E5000DC0D28606F9868606E98A8606D98E860B7
:104E60006C9828616B9868612AE0DFF8BC7D0FF6CA
:104E700028614A463846FBF70DFA2E463D4685E046
:104E800098F80500002855D0DFF89C0DDFF8B41D18
:104E900088F809A088F805A001605F9941605E99D3
:104EA00081605D99C1606FE0DFF87C0D79992E46D5
:104EB0000160789905464160779981607699017320
:104EC00088F808A088F806A060E098F81920DFF8B4
:104ED000DC1D2846FBF7DEF97A98DFF8485D1521DE
:104EE000A8477B98FF21A8477F986946FEF78EFE6A
:104EF000DFABFFF7EFF801467C98A84707F10C00FD
:104F00006946DFF8245DFEF708FFDFABFFF703F922
:104F100018B97146FEF777FF8E4688F808A0032679
:104F20005CE098F81920DFF8881D2846FBF7B2F9F5
:104F3000022653E0DFF8D80C40780028DFF8E80CB0
:104F40000FBF80F800A00FF60C512522FBF76FFA77
:104F500098F80B0000287FF44FAF042E7FF44CAF7D
:104F60000120DFF8181D88F80B00DFF8BC0C016089
:104F700051994160509981604F99C1604E9901618A
:104F80004D9941614C9901832E460546B9F1FF0FB9
:104F9000DFAF0DF513791FD098F80500E0B107F1E8
:104FA0000C006946FEF7B9FEDFABFFF7B4F878B145
:104FB000DFF8F41C28462522FBF739FA012088F88F
:104FC00009A088F8060040F20110A8F8040003E0E8
:104FD0007146FEF718FF8E4688F803A02846FBF7B7
:104FE00007FA82B258462946FEF734F9F0B2032890
:104FF00017D0354688F802A098F8010058B1012072
:1050000088F801A0FCF744FE4FF090404FF4807107
:105010000022FCF728FF98F8110000283FF434AE76
:1050200002E008F1030038E6D1484FF4005100F5E2
:105030008060FCF70BFFDFF8D81BD8F820007E9AC1
:10504000097881F004010143B1FA81F14909114065
:10505000012939D17D99090636D17A98DFF8C44BF8
:105060002021A0477B980021A0477F986946FEF742
:10507000CDFDDFABFFF72EF8FFF783F803244CB12B
:1050800007F10C006946FEF748FEDFABFFF743F877
:10509000013CF4E7DFF8906BDFF8181C3122304652
:1050A000FBF7C5F940F20110012488F809A0A8F81F
:1050B0000400304688F80640FBF79AF9FEF7DEFE5A
:1050C00088F80F40D8F820001922B0FBF2F101FB5C
:1050D0001201002940F0768198F812007299002898
:1050E0004FF00000FBD0DFF8280B88F812A00478FE
:1050F000032C62D1719880F00100C0075DD198ED5A
:105100000D0AB4EE4D0AF1EE10FA17DDC8B20B46E7
:1051100063990324B0FA80F04009084080F001014F
:10512000639110D119060ED001330021D8B26391DA
:1051300006280AD21A46032419463EE0012000211F
:105140000324639039E0014637E0FFF79DFB0446F6
:105150007A98DFF8D06A0121B0477B98E1B2649475
:10516000B0477F9C69462046FEF750FDDFABFEF757
:10517000B1FF01467C98B047DFF83C0B69460F90C1
:105180002046FEF743FDDFAB0FCB00F014FE2046B8
:105190006946FEF73BFDDFABFEF77AFEA8F8140088
:1051A00001200021042488F80F00DFF8640AC8F801
:1051B000201088F80B1000210470D8ED0CAA729111
:1051C0003AEEE80AB4EE480AF1EE10FA0DDA7398F6
:1051D00080F00100C00708D10120F0EE6A8A7D90BE
:1051E000DFF82C0A0724047064E0062C2ED11AEE96
:1051F000900A01F023FF9FED600B53EC102B01F0A0
:105200005DFF30BB7A98DFF81C4A022188F813A0B2
:10521000A0477B980121A0477F986946FEF7F6FCDE
:10522000DFABFEF757FFFEF7ACFF07F10C00694656
:10523000FEF773FDDFABFEF76EFF70B1DFF87C0A9F
:10524000DFF87C1A1C22FBF7F2F80CE0F0EE6A8A19
:1052500012E00624F0EE6A8A12E0DFF8600A724675
:10526000FEF7AFFF9646DFF8A809D8ED0C8A047860
:1052700000207E900020759044F00200062819D18D
:1052800098ED0D0A7D98B4EE4A0AF1EE10FAB4EEEC
:105290004B0AB8BF0220F1EE10FAB4EE4A0AC8BFBA
:1052A00003207D90F1EE10FA9ADBB4EE4B0AF1EE9A
:1052B00010FA95DC18EE900A01F0C0FE53EC1C2B9E
:1052C00001F00AFF00287D9804D1DFF84409072483
:1052D000047004207D9000066ED0072C6CD1244C05
:1052E0004FF480410122FEF7B6FDFEF72AFFFEF7DC
:1052F00099FD7D98DFF8C449DFF8C81988F813A034
:10530000C6B220463246FAF7C5FFFEF751FFFEF758
:10531000AAFE022E08D14FF49670FCF7B9FCDFF814
:10532000AC1920462B221FE07A98DFF8F8480221BA
:10533000A0477B983146A0477F986946FEF766FCF8
:10534000DFABFEF7C7FEFEF71CFF07F10C00694656
:10535000FEF7E3FCDFABFEF7DEFEDFF8604988B165
:10536000DFF8641920463522FBF761F812E000BF30
:105370000004004800BF00BFFCA9F1D24D62503FBD
:10538000D402002079992160789961607799A160B1
:1053900076992173FEF70CFFFEF765FEDFF87008C3
:1053A00003210170012071900020739000207E90F5
:1053B000012070900020759014200121FEF7ECF977
:1053C000D8F82000962840F0A48098F8050060B135
:1053D000DFF83C08007840F00200062805D198F874
:1053E0000900013088F8090001E098F80900C0B20E
:1053F00004281AD307F10C006946FEF78EFCDFABD8
:10540000FEF789FE002848D0DFF81C08DFF8C01836
:105410002A22FBF70CF8012088F809A088F806007A
:1054200040F20110A8F804003DE0484680A900F0D1
:1054300077FCC0B3DFF8800869460F9080A800F1C0
:1054400010042046FEF7E2FB80AB0FCB00F0B3FC6C
:1054500054F8041B6846FEF776FD80ABFEF718FD96
:10546000A8F81400012088F80F0098F80A1098F89E
:105470000400013188F80A10A8B1DFF8A007012163
:10548000012288F804A088F809A0FCF752FDC8F8AA
:105490002400012088F8030005E0DFF88C0772463D
:1054A000FEF78FFE9646DFF86807007804282ED1B5
:1054B0007E9880F00100C00729D1759880F0010026
:1054C000C00724D1DFF848070621E34C0122017010
:1054D00001210120739088F8131020464FF40051E9
:1054E000FCF7C1FCFEF72DFE00204FF480410022A6
:1054F0007090FEF7B0FCDFF830475C9820605B9856
:1055000060605A982072FEF753FEFEF7ACFDD8F8A3
:105510002000FA28C0F04D817D98000611D07E98B9
:1055200080F00100C0070CD17D98DFF8FC46DFF861
:10553000A417C2B22046FAF7ADFEFEF739FEFEF719
:1055400092FD98F8130098B3FFF79EF9064660980D
:10555000DFF8D0460321A0476198F1B26496A047D6
:105560007F986946FEF752FBDFABFEF7B3FD0146BD
:105570006298A047DFF8400769460F90CCA800F179
:1055800010042046FEF742FBCCAB0FCB00F013FC1F
:1055900054F8041B6846FEF7D6FCCCABFEF778FC4B
:1055A000A8F81400012088F80F0098F8130000E014
:1055B0000020DFF85C160978062908BF002830D1E2
:1055C0007198C0070BD0DFF848060421DFF8586651
:1055D0000170579830605698706055980AE0DFF86F
:1055E00030060321DFF8406601705498306053980C
:1055F00070605298984C307201204FF48041012223
:105600007090FEF728FCFEF79CFD00204FF400513F
:1056100000227390FEF71FFC3046FAF7E9FEFEF712
:105620002DFC7498C8F820A001307490C0B20428F2
:1056300040D37D9898ED0C0A98ED0D1A88F8290052
:10564000DFF8CC0521EE0E1A20EE0E0ABDEEC11ACF
:10565000BDEEC00A007810EE103A11EE101A1A0AC8
:1056600088F82B30DBB288F82D1088F82A00080A59
:1056700088F82C20C9B2FF2B88F82E0004BFFE2327
:1056800088F82B30FF2A04BFFE2288F82C20FF293F
:1056900004BFFE2188F82D10FF2804BFFE2088F8E3
:1056A0002E0008F12801DFF870050722FDF7D2FD72
:1056B00000207490DFF85805007840F002000628BA
:1056C00077D198F80800C10731D098F8001071B36D
:1056D000D8E90C06D8F83C4001F0B0FCCDE95810F0
:1056E000304601F0ABFC064620468B4601F0A6FC96
:1056F000649ADFF8344541EC100B4BEC116BDFF88A
:10570000D815DFF810B50DF5137952B22046049282
:10571000DFAFDDE958328DED001B8DED020BFAF79E
:10572000B9FDFEF745FDFEF79EFC98F80800013034
:1057300088F80800C0B204283BD398F80500C0BB25
:105740007A98DFF8E0440421A047D8F83C0001F043
:1057500075FC02460B4651EC1F0B01F045F853EC6B
:10576000192B01F07FFA01F0D5F901467B98A0478B
:105770007F986946FEF74AFADFABFEF7ABFCFEF70F
:1057800000FD07F10C006946FEF7C7FADFABFEF734
:10579000C2FC38B9DFF89044FEF787FBFEF708FD3E
:1057A000FEF761FC012088F808A088F8060088F858
:1057B000040088F811A0D8F8200098F80E100130E5
:1057C000C8F8200098F80D0008433FF45AAA4B98F7
:1057D000A8F80DA0C0072DD07A98DFF8484418210A
:1057E000A04798F80C107B98A0477F986946FEF771
:1057F0000DFADFABFEF76EFCFEF7C3FC07F10C0001
:105800006946FEF78AFADFABFEF785FC002800F058
:10581000AB80DFF8A84498F80C20DFF8D0142046BD
:10582000FAF738FD012088F8060040F20110A8F8C8
:105830000400E2E198F80C00A0F16101152900F2E2
:1058400099800FF22C00D0E811F000BF000000207A
:10585000F40000204C04002000040048D404002080
:105860000402002054020020A40200207003002043
:105870007F00AB00AB00AB00B600AB00AB00AB00F1
:10588000CC00AB00AB00DA00EA00AB00FB0020016B
:105890004101AB004E015E01AB007301671E0008C1
:1058A0006C75000894750008887500087C75000800
:1058B0004C750008AC750008A87300083C7500081A
:1058C00020750008F07300089473000858740008ED
:1058D00060750008A0750008B8750008BC73000862
:1058E00041544E3A20496E766974696E672054724D
:1058F000616E736D2E0D0A0041434B207265636526
:10590000697665642E2043532D3E50540D0A0000E5
:10591000436F6D6D756E69636174696F6E2072653A
:1059200073746F7265642E0D0A00000041434B20B2
:1059300072656365697665642E0D0A003401002086
:1059400081720008F15C0008DC4C459820604498A6
:1059500060604398A0604298A0814198A0730020A5
:105960004B90012071904AE1D44C7146FEF79DFAAC
:105970008E4642E1412800F0FF80502810D1CF4CE4
:1059800023982060229860602198207201207E90E8
:10599000FEF7D7FB002100204B90C8F820102EE125
:1059A000C64C4A982060499860604898A060479823
:1059B000E060469831E07D99080640F01681BF4CC2
:1059C000209820601F9860601E98A0601D98E0607D
:1059D0001C9820611B9860611A9820831998A07602
:1059E00009E1B64C409820603F9860603E98A06006
:1059F0003D98E0603C982082FEF7A3FBFDE08848DC
:105A00000221FCF728FAAD4C3B9820603A98606080
:105A10003998A0603898E06037982082EDE0A74C74
:105A200036987B492060359860603498A060339840
:105A3000E06032982082487880F001004870DCE015
:105A40007A98784C0221A0477B980C21A0477F9838
:105A50006946FEF7DBF8DFABFEF73CFBFEF791FB98
:105A600007F10C006946FEF758F9DFABFEF753FB70
:105A7000002800F0918091481899016017994160C1
:105A800016990181159981728BE07A98654C0221F3
:105A900088F813A0A0477B980121A0477F9869460A
:105AA000FEF7B4F8DFABFEF715FBFEF76AFB8348A1
:105AB0000324002C54D007F10C006946FEF72DF9A1
:105AC000DFABFEF728FB7D48013CF2E77B4C2E98CC
:105AD00020602D9860602C98A0602B98E0602A9838
